:04000000E1EF3BF001
:1077AE00F3EC3BF060EC3CF0120072EC3DF0ECECD4
:1077BE003BF01200000EF86E000127EF3DF08198AD
:1077CE00E20E05EC3CF0818812008B8CE0EC3CF074
:1077DE008B9CE0EC3CF01200520ED36E000ED26E7B
:1077EE00000E9B6E000EB56E1200C9CF01F09E9674
:1077FE00000EC96E9EA6FED7C9501200026EC9CFEA
:10780E0001F09E96C69E02C0C9FFC6BE12009EB66D
:10781E001200FDD70AD0FCEC3BF002C0D9FF03C02A
:10782E00DAFFDF6E024A032A04060466F4D712005A
:10783E00819A320EE82EFED78198200E05EC3CF090
:10784E00030E05EC3CF08188320EE82EFED7818ABD
:10785E00320EE82EFED71200000E076E000E066ED8
:10786E008198070E05EC3CF0FCEC3BF0056E0550E4
:10787E00066E076A818806C003F007C004F0120086
:10788E008198610E05EC3CF0FF0E05EC3CF006C055
:10789E0003F005C002F00B0E046E11EC3CF0818873
:1078AE0020EE0BF00550D9260650DA22000EDF6EC0
:1078BE001200000E836E000E956E000E0F015E6FAD
:1078CE00000E806E000E926E000E0F015B6F000EAA
:1078DE00846E000E966E000E0F015F6F000E826EAC
:1078EE00000E946E000E0F015D6F010E936E000E72
:1078FE000F015C6F100E8A6E1200036E3F0EC716DC
:10790E00000EC66E0350C6120250C71205D0C78CA9
:10791E0013D0C78CC68810D00150000AD8B4F7D740
:10792E00020AD8B4F6D7010AD8B4F4D705D0928A91
:10793E0093840AD0939408D00350040AD8B4F7D78E
:10794E00010AD8B4F5D7F6D793809396C68A12005B
:10795E00076E0DD00450800F08D00450C00F05D014
:10796E000450940F02D00450D40F086E0DD007505F
:10797E00010AD8B4EFD7030AD8B4EFD7010AD8B4A6
:10798E00EFD7070AD8B4EFD708503EEC3EF009D037
:10799E0005C0D9FF06C0DAFFDF50D1EC3EF0054A34
:1079AE00062A05C0D9FF06C0DAFFDF50D8B4120090
:1079BE00EFD7820E016EDE0EE82EFED7012EFCD71B
:1079CE00820E016EDE0EE82EFED7012EFCD7820E41
:1079DE00016EDE0EE82EFED7012EFCD7820E016E52
:1079EE00DE0EE82EFED7012EFCD7820E016EDE0EC5
:1079FE00E82EFED7012EFCD7820E016EDE0EE82E8B
:107A0E00FED7012EFCD7820E016EDE0EE82EFED7BB
:107A1E00012EFCD7820E016EDE0EE82EFED7012E51
:107A2E00FCD7820E016EDE0EE82EFED7012EFCD79D
:107A3E00820E016EDE0EE82EFED7012EFCD712004E
:107A4E0067EC3FF00C0E3EEC3EF0D7EC3BF0820EB6
:107A5E00096EDE0EE82EFED7092EFCD7D3EC3DF0D4
:107A6E00820E096EDE0EE82EFED7092EFCD7DCEC58
:107A7E003BF01FEC3CF0820E096EDE0EE82EFED7B8
:107A8E00092EFCD7DCEC3BF0E6EC3BF033EC3CF0A3
:107A9E0003C016F004C017F017501610D8B404D057
:107AAE00E6EC3BF0E0EC3CF0000E066E0A0E056EC6
:107ABE0047EC3CF0820E096EDE0EE82EFED7092E44
:107ACE00FCD7010E046E000E066E0A0E056E010E38
:107ADE00AFEC3CF0DBD78B8E820E016EDE0EE82E05
:107AEE00FED7012EFCD78B9E820E016EDE0EE82E87
:107AFE00FED7012EFCD78B8E820E016EDE0EE82E87
:107B0E00FED7012EFCD78B9E820E016EDE0EE82E66
:107B1E00FED7012EFCD78B8E820E016EDE0EE82E66
:107B2E00FED7012EFCD78B9E820E016EDE0EE82E46
:107B3E00FED7012EFCD78B8E820E016EDE0EE82E46
:107B4E00FED7012EFCD78B9E820E016EDE0EE82E26
:107B5E00FED7012EFCD78B8E820E016EDE0EE82E26
:107B6E00FED7012EFCD78B9E820E016EDE0EE82E06
:107B7E00FED7012EFCD78B8E820E016EDE0EE82E06
:107B8E00FED7012EFCD78B9E820E016EDE0EE82EE6
:107B9E00FED7012EFCD71200000E016E800E026E73
:107BAE00010E84EC3CF08198200E05EC3CF0020EA8
:107BBE0005EC3CF081888198210E05EC3CF0000E1E
:107BCE0005EC3CF081888198220E05EC3CF0010E0C
:107BDE0005EC3CF081888198230E05EC3CF0010EFB
:107BEE0005EC3CF081888198240E05EC3CF0000EEB
:107BFE0005EC3CF081888198250E05EC3CF0010ED9
:107C0E0005EC3CF081888198260E05EC3CF0260EA2
:107C1E0005EC3CF081888198310E05EC3CF00C0EA1
:107C2E0005EC3CF0818881982A0E05EC3CF0A30E01
:107C3E0005EC3CF0A30E05EC3CF0A30E05EC3CF07D
:107C4E0081888198300E05EC3CF0A30E05EC3CF0DB
:107C5E00A30E05EC3CF0A30E05EC3CF08188820EE1
:107C6E00046EDE0EE82EFED7042EFCD71200036E35
:107C7E00819E819C016A03AE01D0012A010E01167C
:107C8E0001320132835001187F0B0118836E03C03D
:107C9E0001F0060E026ED8900132022EFCD7010EB4
:107CAE000116013A0146014683500118BF0B011817
:107CBE00836E03C001F0050E026ED8900132022EC3
:107CCE00FCD7010E0116013A014683500118DF0B55
:107CDE000118836E03C001F0013A0F0E0116010E5A
:107CEE000116013A83500118EF0B0118836E030E33
:107CFE00E82EFED700F0818E00F000D000D0819EDD
:107D0E0003C001F0D8900132D8900132D8900132E0
:107D1E00010E011601320132835001187F0B01183A
:107D2E00836E03C001F0D8900132D8900132010E5B
:107D3E000116013A0146014683500118BF0B011886
:107D4E00836E03C001F0D8900132010E0116013A84
:107D5E00014683500118DF0B0118836E03C001F03A
:107D6E00010E0116013A83500118EF0B0118836EB4
:107D7E00030EE82EFED700F0818E00F000D000D06A
:107D8E00819E080E016E230EE82EFED7012EFCD723
:107D9E0000F01200036E819E818C016A03AE01D049
:107DAE00012A010E011601320132835001187F0B98
:107DBE000118836E03C001F0060E026ED8900132D8
:107DCE00022EFCD7010E0116013A014601468350E0
:107DDE000118BF0B0118836E03C001F0050E026E71
:107DEE00D8900132022EFCD7010E0116013A01463F
:107DFE0083500118DF0B0118836E03C001F0013AA6
:107E0E000F0E0116010E0116013A83500118EF0BE9
:107E1E000118836E030EE82EFED700F0818E00F05F
:107E2E0000D000D0819E03C001F0D8900132D890CE
:107E3E000132D8900132010E011601320132835007
:107E4E0001187F0B0118836E03C001F0D890013228
:107E5E00D8900132010E0116013A014601468350B7
:107E6E000118BF0B0118836E03C001F0D8900132C8
:107E7E00010E0116013A014683500118DF0B01185D
:107E8E00836E03C001F0010E0116013A83500118F2
:107E9E00EF0B0118836E030EE82EFED700F0818ED5
:107EAE0000F000D000D0819E00F000D000D0080E6F
:107EBE00016E230EE82EFED7012EFCD700F0120025
:107ECE00000E0F015E6F0F015C9B959E959C959A1F
:107EDE009598939E939C9592839E839C839A839868
:107EEE00819E819C8392080E046E230EE82EFED78F
:107EFE00042EFCD700F0080E046E230EE82EFED7DB
:107F0E00042EFCD700F0080E046E230EE82EFED7CA
:107F1E00042EFCD700F0080E046E230EE82EFED7BA
:107F2E00042EFCD700F0080E046E230EE82EFED7AA
:107F3E00042EFCD700F0080E046E230EE82EFED79A
:107F4E00042EFCD700F0010E056E1ED0839E839C7E
:107F5E00838A8388819E819C839E839C838A838867
:107F6E00818E819C00F000D000D0839E839C838AFA
:107F7E008388819E819C080E046E230EE82EFED708
:107F8E00042EFCD700F0052A030E0564DFD7839E6E
:107F9E00839C838A8398819E819C839E839C838A03
:107FAE008398818E819C00F000D000D0839E839CAC
:107FBE00838A8398819E819C080E046E230EE82E80
:107FCE00FED7042EFCD700F0280E056E05503EECB1
:107FDE003EF0100E056E05503EEC3EF0010E056EA5
:107FEE0005503EEC3EF00F0E056E05503EEC3EF099
:027FFE0012006F
:020000040020DA
:08000000FFFFFFFFFFFFFFFF00
:020000040030CA
:0E00000000285F3CFFD385FF0FC00FE00F40CC
:00000001FF
