:020000040000FA
:0400000050EF0DF0C0
:100800000000009E19000000000000701A01000A9C
:10081000006400E803102754686520726563656909
:10082000766564204153434949206368617261637E
:100830007465722069733A202563200A00636D2075
:070840000A002025690000F9
:1008480005EF06F0250E1918D8B42DEF04F02FEF98
:1008580004F071EF04F031EF04F020EE02F00D50D7
:10086800D9260E50DA22DE50DE10D8B43EEF04F05E
:1008780040EF04F056EF04F020EE02F00D50D926B8
:100888000E50DA2202D854EF04F00500FA6EDE505A
:10089800FD6EDE50FE6EF850FF6EFA5019501200D1
:1008A80005EF06F00DC0D9FF0EC0DAFFDECF13F05A
:1008B800DDCF14F013C0D9FF14C0DAFF19C0DFFF71
:1008C8000DC0D9FF0EC0DAFFDE2A000EDD2205EFCB
:1008D80006F005EF06F005EF06F0000E156ED1EFF5
:1008E80004F01AEF06F0EDEF04F0EDEF04F011C09C
:1008F800D9FF12C0DAFFDFCF13F0020EDE26DFCFFA
:1009080014F0000EDD2213C0D9FF14C0DAFFDF5047
:10091800196E8FEF04F020EE02F00D50D9260E501C
:10092800DA22DE50DE10D8B49CEF04F09EEF04F01B
:10093800B4EF04F020EE02F00D50D9260E50DA2262
:1009480002D8B2EF04F00500FA6EDE50FD6EDE50FC
:10095800FE6EF850FF6EFA501950120005EF06F0BF
:100968000DC0D9FF0EC0DAFFDECF13F0DDCF14F0D3
:1009780013C0D9FF14C0DAFF19C0DFFF0DC0D9FFBB
:100988000EC0DAFFDE2A000EDD2205EF06F005EFC5
:1009980006F005EF06F0EDEF04F00FC0F6FF10C00B
:1009A800F7FF0F4A102A0800F5CF19F01950000A6E
:1009B800D8B41AEF06F0630AD8B47BEF04F0070A3C
:1009C800D8B4EDEF04F00D0AD8B4EDEF04F08FEFD2
:1009D80004F011C0D9FF12C0DAFFDFCF13F0020E06
:1009E800DE26DFCF14F0000EDD2213C0D9FF14C0BD
:1009F800DAFFDECF17F0DDCF18F018BE08EF05F0EC
:100A080006EF05F010EF05F0030E1512176C181E0F
:100A1800D8B0182A10EF05F0010E196E050E191836
:100A2800D8A419EF05F01BEF05F01FEF05F044EF10
:100A380005F044EF05F01950020D0D0EF324F66E83
:100A4800080EF420F76E0900F550175C0900F55000
:100A58001858D8B032EF05F034EF05F038EF05F04C
:100A680044EF05F044EF05F0192A050E1918D8A42B
:100A780040EF05F042EF05F01FEF05F044EF05F0F9
:100A880015C013F0030E1316D8B44DEF05F04FEF51
:100A980005F091EF05F051EF05F020EE02F00D5052
:100AA800D9260E50DA22DE50DE10D8B45EEF05F0FB
:100AB80060EF05F076EF05F020EE02F00D50D92634
:100AC8000E50DA2202D874EF05F00500FA6EDE50F7
:100AD800FD6EDE50FE6EF850FF6EFA502D0E1200BD
:100AE80091EF05F00DC0D9FF0EC0DAFFDECF13F08D
:100AF800DDCF14F013C0D9FF14C0DAFF2D0EDF6E5E
:100B08000DC0D9FF0EC0DAFFDE2A000EDD2291EFFC
:100B180005F091EF05F091EF05F019C016F0F8EF28
:100B280005F01650020D0D0EF324F66E080EF42093
:100B3800F76E0900F5CF03F00A00F5CF04F017C0EF
:100B480001F018C002F09CEC0BF001C008F002C0E4
:100B580009F0000E0B6E0A0E0A6EE0EC0BF008505E
:100B6800300F196EB8EF05F020EE02F00D50D926BF
:100B78000E50DA22DE50DE10D8B4C5EF05F0C7EF0C
:100B880005F0DDEF05F020EE02F00D50D9260E50ED
:100B9800DA2202D8DBEF05F00500FA6EDE50FD6EB2
:100BA800DE50FE6EF850FF6EFA5019501200F8EF42
:100BB80005F00DC0D9FF0EC0DAFFDECF13F0DDCF90
:100BC80014F013C0D9FF14C0DAFF19C0DFFF0DC03D
:100BD800D9FF0EC0DAFFDE2A000EDD22F8EF05F09D
:100BE800F8EF05F0F8EF05F016061628D8A4FFEF81
:100BF80005F001EF06F095EF05F005EF06F005EFBB
:100C080006F00FC0F6FF10C0F7FF0F4A102A0800C1
:100C1800F5CF19F01950D8A414EF06F016EF06F026
:100C280026EF04F01AEF06F01AEF06F0000E0E6E2B
:100C3800000E0D6E20EF06F012009492000E0F01C8
:100C48005D6F000E176E010E166E000E1A6E240EE2
:100C58001B6EF40E1C6E000E1D6E1AC001F01BC038
:100C680002F01CC003F01DC004F010C005F011C054
:100C780006F0076A086A9BEC0AF001C01AF002C085
:100C88001BF003C01CF004C01DF01AC012F01BC0FA
:100C980013F01CC014F01DC015F0030E59EF06F038
:100CA800D8901532143213321232E82E54EF06F06F
:100CB80012C01AF013C01BF014C01CF015C01DF0B0
:100CC800000EBA6E94EF06F016C012F017C013F0BB
:100CD800D89012361336D8901236133612C016F042
:100CE80013C017F0BA2A1AC012F01BC013F01CC0A8
:100CF80014F01DC015F0030E87EF06F0D8901532DA
:100D0800143213321232E82E82EF06F012C01AF0B3
:100D180013C01BF014C01CF015C01DF094EF06F0B2
:100D28001D501C1008E11A04010E1B58D8B09FEF83
:100D380006F0A1EF06F068EF06F0A3EF06F01A063A
:100D4800000E1B5A1C5A1D5A1AC0BBFF1AC01EF0AF
:100D58001BC01FF01CC020F01DC021F0010E1E2674
:100D6800000E1F22202221220EC001F00FC002F027
:100D7800036A046A1EC005F01FC006F020C007F011
:100D880021C008F01CEC0CF001C01EF002C01FF0DE
:100D980003C020F004C021F01EC012F01FC013F0E1
:100DA80020C014F021C015F0020ED8901236133668
:100DB80014361536E82ED9EF06F012C01EF013C00F
:100DC8001FF014C020F015C021F01EC001F01FC094
:100DD80002F020C003F021C004F0640E056E000E7E
:100DE800066E000E076E000E086E9BEC0AF001C03E
:100DF8001EF002C01FF003C020F004C021F01EC086
:100E080018F01FC019F0030E1814186E196A18C0CC
:100E180012F019C013F0123A133AF00E13161250CA
:100E28000F0B1312F00E121612C018F013C019F09F
:100E38000C0E976E97501810976E1EC012F01FC0B8
:100E480013F020C014F021C015F0030E31EF07F0A5
:100E5800D8901532143213321232E82E2CEF07F0E4
:100E680012C01EF013C01FF014C020F015C021F0EE
:100E78001EC090FFBA84000EBC6E12009492000E41
:100E88000F015D6F000E176E010E166E000E1A6EC2
:100E9800240E1B6EF40E1C6E000E1D6E1AC001F09F
:100EA8001BC002F01CC003F01DC004F010C005F008
:100EB80011C006F0076A086A9BEC0AF001C01AF034
:100EC80002C01BF003C01CF004C01DF01AC012F0D1
:100ED8001BC013F01CC014F01DC015F0030E7AEFF0
:100EE80007F0D8901532143213321232E82E75EF0B
:100EF80007F012C01AF013C01BF014C01CF015C084
:100F08001DF0000EBA6EB5EF07F016C012F017C04C
:100F180013F0D89012361336D8901236133612C002
:100F280016F013C017F0BA2A1AC012F01BC013F03B
:100F38001CC014F01DC015F0030EA8EF07F0D890E0
:100F48001532143213321232E82EA3EF07F012C012
:100F58001AF013C01BF014C01CF015C01DF0B5EF3B
:100F680007F01D501C1008E11A04010E1B58D8B0D8
:100F7800C0EF07F0C2EF07F089EF07F0C4EF07F002
:100F88001A06000E1B5A1C5A1D5A1AC0BBFF1AC05B
:100F98001EF01BC01FF01CC020F01DC021F0010E68
:100FA8001E26000E1F22202221220EC001F00FC093
:100FB80002F0036A046A1EC005F01FC006F020C0D4
:100FC80007F021C008F01CEC0CF001C01EF002C0B4
:100FD8001FF003C020F004C021F01EC012F01FC093
:100FE80013F020C014F021C015F0020ED89012366C
:100FF800133614361536E82EFAEF07F012C01EF035
:1010080013C01FF014C020F015C021F01EC001F05D
:101018001FC002F020C003F021C004F0640E056E6A
:10102800000E066E000E076E000E086E9BEC0AF0AE
:1010380001C01EF002C01FF003C020F004C021F060
:101048001EC018F01FC019F0030E1814186E196A84
:1010580018C012F019C013F0123A133AF00E131612
:1010680012500F0B1312F00E121612C018F013C004
:1010780019F00C0EBD6EBD501810BD6E1EC012F0DA
:101088001FC013F020C014F021C015F0030E52EF5A
:1010980008F0D8901532143213321232E82E4DEF80
:1010A80008F012C01EF013C01FF014C020F015C0C5
:1010B80021F01EC0BEFFBA84000EBC6E1200000EE6
:1010C8000F015E6F959E959C959A95989596959229
:1010D8009594839E839C839A839883968392839422
:1010E800080E046E230EE82EFED7042EFCD700F05F
:1010F800080E046E230EE82EFED7042EFCD700F04F
:10110800080E046E230EE82EFED7042EFCD700F03E
:10111800080E046E230EE82EFED7042EFCD700F02E
:10112800080E046E230EE82EFED7042EFCD700F01E
:10113800080E046E230EE82EFED7042EFCD700F00E
:10114800010E056E030E0564ACEF08F0AEEF08F073
:10115800B2EF08F0D8EF08F0D8EF08F0839E839C30
:10116800838A838883968392839E839C838A8388D9
:101178008386839200D000D000F0839E839C838A6C
:10118800838883968392080E046E230EE82EFED77A
:10119800042EFCD700F0052A030E0564D6EF08F0EC
:1011A800D8EF08F0B2EF08F0839E839C838A839877
:1011B80083968392839E839C838A83988386839273
:1011C80000D000D000F0839E839C838A8398839606
:1011D8008392080E046E230EE82EFED7042EFCD749
:1011E80000F0280E056E0550A2EC09F0100E056EF1
:1011F8000550A2EC09F0010E056E0550A2EC09F0AD
:101208000F0E056E0550A2EC09F01200036E8396CE
:101218008382016A03AE01D0012A010E0116013250
:101228000132835001187F0B0118836E03C001F04F
:10123800060E026ED8900132022E1EEF09F0010E42
:101248000116013A0146014683500118BF0B0118E7
:10125800836E03C001F0050E026ED8900132022E93
:1012680031EF09F0010E0116013A014683500118C9
:10127800DF0B0118836E03C001F0013A0F0E01164F
:10128800010E0116013A83500118EF0B0118836E05
:10129800030EE82EFED700F0838600D000D000F0C1
:1012A800839603C001F0D8900132D8900132D890CB
:1012B8000132010E011601320132835001187F0BF1
:1012C8000118836E03C001F0D8900132D890013222
:1012D800010E0116013A0146014683500118BF0B61
:1012E8000118836E03C001F0D8900132010E011677
:1012F800013A014683500118DF0B0118836E03C0C1
:1013080001F0010E0116013A83500118EF0B011884
:10131800836E030EE82EFED700F0838600D000D03F
:1013280000F0839600D000D000F0080E016E230E66
:10133800E82EFED7012EFCD700F01200036E83962C
:101348008392016A03AE01D0012A010E011601320F
:101358000132835001187F0B0118836E03C001F01E
:10136800060E026ED8900132022EB6EF09F0010E79
:101378000116013A0146014683500118BF0B0118B6
:10138800836E03C001F0050E026ED8900132022E62
:10139800C9EF09F0010E0116013A01468350011800
:1013A800DF0B0118836E03C001F0013A0F0E01161E
:1013B800010E0116013A83500118EF0B0118836ED4
:1013C800030EE82EFED700F0838600D000D000F090
:1013D800839603C001F0D8900132D8900132D8909A
:1013E8000132010E011601320132835001187F0BC0
:1013F8000118836E03C001F0D8900132D8900132F1
:10140800010E0116013A0146014683500118BF0B2F
:101418000118836E03C001F0D8900132010E011645
:10142800013A014683500118DF0B0118836E03C08F
:1014380001F0010E0116013A83500118EF0B011853
:10144800836E030EE82EFED700F0838600D000D00E
:1014580000F08396080E016E230EE82EFED7012EAB
:10146800FCD700F012008A90000ECD6E3CEF0AF017
:10147800010EA2EC09F0000ECF6E000ECE6E000E2B
:101488000F6E000E0E6E8A80100EE82EFED78A9020
:101498004EEF0AF081A253EF0AF055EF0AF04EEF33
:1014A8000AF0CD8058EF0AF081A25DEF0AF05FEFF5
:1014B8000AF068EF0AF09EA064EF0AF066EF0AF0FF
:1014C80058EF0AF068EF0AF0CD909EB06EEF0AF080
:1014D80070EF0AF07BEF0AF0CF500B6E0A6A0A50E1
:1014E8000E120B500F12CE500E1282EF0AF0000EA1
:1014F8000F6E000E0E6E9E9082EF0AF00EC001F085
:101508000FC002F0000E046E3A0E036E9CEC0BF056
:1015180001C00CF002C00DF00CC008F00DC009F0BD
:101528009AEF0AF09AEF0AF03CEF0AF01200000E68
:10153800096E000E0A6E000E0B6E000E0C6E055042
:10154800061007100810D8B4ACEF0AF0AEEF0AF096
:10155800EEEF0AF0010E0D6EBAEF0AF0D8900536DC
:101568000636073608360D2ABAEF0AF008AEBFEF7E
:101578000AF0C1EF0AF0B2EF0AF0C5EF0AF0C5EFC2
:101588000AF0D89009360A360B360C360550015C3D
:10159800065002580750035808500458D8A0D7EFEF
:1015A8000AF0D9EF0AF0E4EF0AF00550015E0650A0
:1015B800025A0750035A0850045A0980E4EF0AF007
:1015C800D89008320732063205320D2EC5EF0AF0E0
:1015D800EEEF0AF009C001F00AC002F00BC003F0F8
:1015E8000CC004F0120057EC0DF063EC08F00C0E80
:1015F800A2EC09F037EC0AF008C032F009C033F069
:10160800280E1A6E000E1B6E420E1C6E080E1D6E02
:1016180032C01EF033C01FF08BEC0CF0280E016EA8
:10162800000E026E3D0E036E080E046E55EC0CF0B3
:10163800040E046E280E056E000E066E020E4FECA8
:101648000BF0280E026E000E036EEEEC0CF023EC8D
:101658000DF0030E276E080E266E770EE82EFED7C5
:10166800262EFCD7272EFAD700F033BE47EF0BF013
:10167800335007E10A0E325CD8B045EF0BF047EF64
:101688000BF0FEEF0AF00AEC0DF0FEEF0AF0FEEFA9
:101698000AF000EF00F0076E6AEF0BF00450800FBD
:1016A800086E7DEF0BF00450C00F086E7DEF0BF055
:1016B8000450940F086E7DEF0BF00450D40F086EA1
:1016C8007DEF0BF07DEF0BF07DEF0BF00750010A7B
:1016D800D8B452EF0BF0030AD8B457EF0BF0010A55
:1016E800D8B45CEF0BF0070AD8B461EF0BF07DEFCC
:1016F8000BF00850A2EC09F08DEF0BF005C0D9FFF4
:1017080006C0DAFFDF500AEC09F0054A062A8DEF19
:101718000BF005C0D9FF06C0DAFFDF50D8A497EF59
:101728000BF099EF0BF082EF0BF09BEF0BF0120030
:10173800000E066E000E056E03500410D8B4A7EF15
:101748000BF0A9EF0BF0DBEF0BF0010E076EB3EF18
:101758000BF0D89003360436072AB3EF0BF004AE2B
:10176800B8EF0BF0BAEF0BF0ADEF0BF0BEEF0BF0EC
:10177800BEEF0BF0D890053606360350015C0450D6
:101788000258D8A0CAEF0BF0CCEF0BF0D3EF0BF058
:101798000350015E0450025A0580D3EF0BF0D89035
:1017A80004320332072EBEEF0BF0DBEF0BF005C05F
:1017B80001F006C002F012000A500B10D8B4E7EF8F
:1017C8000BF0E9EF0BF017EF0CF0010E0C6EF3EFD6
:1017D8000BF0D8900A360B360C2AF3EF0BF00BAE51
:1017E800F8EF0BF0FAEF0BF0EDEF0BF0FEEF0BF06C
:1017F800FEEF0BF00A50085C0B500958D8A007EF11
:101808000CF009EF0CF00FEF0CF00A50085E0B50CB
:10181800095A0FEF0CF0D8900B320A320C2EFEEF5B
:101828000BF017EF0CF008C008F009C009F012001F
:10183800000E096E000E0A6E000E0B6E000E0C6E86
:1018480026EF0CF001A02BEF0CF02DEF0CF037EF8A
:101858000CF00550092606500A2207500B220850A2
:101868000C2237EF0CF0D8900536063607360836C6
:10187800D8900432033202320132015002100310B0
:101888000410D8A44AEF0CF04CEF0CF026EF0CF043
:1018980009C001F00AC002F00BC003F00CC004F04C
:1018A800120001C005F002C006F05FEF0CF0054A17
:1018B800062A5FEF0CF005C0D9FF06C0DAFFDF503B
:1018C800D8A469EF0CF06BEF0CF05BEF0CF075EF40
:1018D8000CF075EF0CF0054A062A034A042A75EF46
:1018E8000CF003C0F6FF04C0F7FF05C0D9FF06C01F
:1018F800DAFF0800F5CFDFFFDF50D8A486EF0CF041
:1019080088EF0CF06FEF0CF08AEF0CF012001AC0A1
:1019180022F01BC023F0000E246E000E256E1E0E52
:10192800206E000E216E220E0D6E000E0E6E1CC073
:101938000FF01DC010F0200E116E000E126E24EC78
:1019480004F022C0D9FF23C0DAFF000EDF6EADEF2E
:101958000CF01200000E8D6E000E8C6E000E896E5B
:10196800000E8A6E000E8B6E050E966EFE0E926E3F
:10197800C20E936E810E946E95680F015E69000E1B
:101988005D6F000E5C6F050E5F6F2E0E5B6F000EB5
:10199800856EF18E1200080EB86E800EAB6E240EA6
:1019A800AC6E670EAF6E000EB06E000E016E000ECC
:1019B800026E63EC0DF0000E016E000E026E5EEC1E
:1019C8000DF0000E016E000E026E68EC0DF0000EB8
:1019D8003B6E1200FBEF0CF002C0D9FF03C0DAFF28
:1019E800DF5038EC0DF0024A032AFBEF0CF002C07E
:1019F800D9FF03C0DAFFDF50D8A405EF0DF007EFD9
:101A08000DF0F0EF0CF009EF0DF012008D82060ECC
:101A1800026E130E016EAE0EE82EFED7012EFCD715
:101A2800022EFAD78D92060E026E130E016EAE0EBE
:101A3800E82EFED7012EFCD7022EFAD71200000E90
:101A48000F6E630E0E6E030E116EE80E106E42ECF2
:101A580007F0000E0F6E630E0E6E030E116EE80E89
:101A6800106E21EC06F01200016E3BEF0DF09EA8FF
:101A780040EF0DF042EF0DF03BEF0DF044EF0DF0AD
:101A880001C0ADFF1200520ED36E000ED26E000ED2
:101A98009B6E000EB56E12003B6A3A6A000EF86E35
:101AA8000001F7EF0AF0AEEC0CF047EC0DF0CFECCC
:101AB8000CF0120001C036F002C037F0120001C06D
:101AC80038F002C039F0120001C034F002C035F01D
:041AD80012001200E6
:020000040020DA
:08000000FFFFFFFFFFFFFFFF00
:020000040030CA
:0E00000000285F3CFFD381FF0FC00FE00F40D0
:00000001FF
