:04000000CBEF3DF015
:107B8C00F19E000E0F015C6F1200000EF86E0001EA
:107B9C00D7EF3DF0200E016EF6EC3DF0016E01507A
:107BAC001200000E926E000E0F015B6F000E806EC5
:107BBC00000E966E000E0F015F6F570ED36E000E07
:107BCC000F015E6FC6EC3DF0D6EC3EF0010E43ECBF
:107BDC003EF0D0EC3DF0066E06506AEC3FF0F9D763
:107BEC00F00E936E8168819081B802D0310E120034
:107BFC0081BA02D0320E120081BC02D0330E1200B8
:107C0C0081BE02D0410E12008180819281B802D0D7
:107C1C00340E120081BA02D0350E120081BC02D093
:107C2C00360E120081BE02D0420E12008182819467
:107C3C0081B802D0370E120081BA02D0380E120071
:107C4C0081BC02D0390E120081BE02D0430E12004C
:107C5C008184819681B802D02A0E120081BA02D09A
:107C6C00300E120081BC02D0230E120081BE02D055
:107C7C00440E12008186200E1200036E83968392AE
:107C8C00016A03AE01D0012A010E01160132013244
:107C9C00835001187F0B0118836E03C001F0060E90
:107CAC00026ED8900132022EFCD7010E0116013A59
:107CBC000146014683500118BF0B0118836E03C0A7
:107CCC0001F0050E026ED8900132022EFCD7010E87
:107CDC000116013A014683500118DF0B0118836E1F
:107CEC0003C001F0013A0F0E0116010E0116013A04
:107CFC0083500118EF0B0118836E030EE82EFED78C
:107D0C0000F0838600F000D000D0839603C001F011
:107D1C00D8900132D8900132D8900132010E011660
:107D2C0001320132835001187F0B0118836E03C09E
:107D3C0001F0D8900132D8900132010E0116013AAF
:107D4C000146014683500118BF0B0118836E03C016
:107D5C0001F0D8900132010E0116013A0146835010
:107D6C000118DF0B0118836E03C001F0010E011620
:107D7C00013A83500118EF0B0118836E030EE82EA5
:107D8C00FED700F0838600F000D000D08396080E5A
:107D9C00016E230EE82EFED7012EFCD700F0120048
:107DAC00959E959C959A9598959695929594839E6B
:107DBC00839C839A8398839683928394080E046E93
:107DCC00230EE82EFED7042EFCD700F0080E046E0E
:107DDC00230EE82EFED7042EFCD700F0080E046EFE
:107DEC00230EE82EFED7042EFCD700F0080E046EEE
:107DFC00230EE82EFED7042EFCD700F0080E046EDE
:107E0C00230EE82EFED7042EFCD700F0080E046ECD
:107E1C00230EE82EFED7042EFCD700F0010E056EC3
:107E2C001ED0839E839C838A838883968392839EB1
:107E3C00839C838A83888386839200F000D000D051
:107E4C00839E839C838A838883968392080E046E18
:107E5C00230EE82EFED7042EFCD700F0052A030EC5
:107E6C000564DFD7839E839C838A83988396839251
:107E7C00839E839C838A83988386839200F000D0B0
:107E8C0000D0839E839C838A839883968392080E6A
:107E9C00046E230EE82EFED7042EFCD700F0280E1D
:107EAC00056E055043EC3EF0100E056E055043EC8C
:107EBC003EF0010E056E055043EC3EF00F0E056EC4
:107ECC00055043EC3EF01200036E83968382016AE8
:107EDC0003AE01D0012A010E01160132013283508A
:107EEC0001187F0B0118836E03C001F0060E026EA1
:107EFC00D8900132022EFCD7010E0116013A014630
:107F0C00014683500118BF0B0118836E03C001F0AA
:107F1C00050E026ED8900132022EFCD7010E01160E
:107F2C00013A014683500118DF0B0118836E03C020
:107F3C0001F0013A0F0E0116010E0116013A8350A1
:107F4C000118EF0B0118836E030EE82EFED700F01C
:107F5C00838600F000D000D0839603C001F0D89047
:107F6C000132D8900132D8900132010E0116013243
:107F7C000132835001187F0B0118836E03C001F08E
:107F8C00D8900132D8900132010E0116013A014607
:107F9C00014683500118BF0B0118836E03C001F01A
:107FAC00D8900132010E0116013A01468350011896
:107FBC00DF0B0118836E03C001F0010E0116013AAC
:107FCC0083500118EF0B0118836E030EE82EFED7B9
:107FDC0000F0838600F000D000D0839600F000D033
:107FEC0000D0080E016E230EE82EFED7012EFCD712
:047FFC0000F012007F
:020000040020DA
:08000000FFFFFFFFFFFFFFFF00
:020000040030CA
:0E00000000085E3CFFD381FF0FC00FE00F40F1
:00000001FF
