:0400000070EF3EF06F
:107C4000550032EC3EF087EC3EF0120034EC3FF091
:107C50002BEC3EF012008B8CEDEC3EF08B9CEDECAF
:107C60003EF01200520ED36E000ED26E000E9B6ECE
:107C7000000EB56E1200126EC9CF11F09E96C69E10
:107C800012C0C9FFC6AE02D0FF0E12009EA6FED7DC
:107C9000000E1200136E8198A00E3BEC3EF0000E19
:107CA0003BEC3EF013503BEC3EF08188818A050EA0
:107CB000E82EFED7819A1200819A320EE82EFED766
:107CC0008198200E3BEC3EF0020E3BEC3EF08188AA
:107CD000320EE82EFED7818A320EE82EFED7120031
:107CE00000EE01F0100EEE6AE806FDE1400EF66EC1
:107CF0007C0EF76E000EF86E0900F5CF16F0090045
:107D0000F5CF17F0000EF86E0001A2EF3EF0000E66
:107D1000806E000E926E000E0F015B6F000E846E7F
:107D20009692000E0F015F6F000E826E949C000E03
:107D30000F015D6F010E936E000E0F015C6F100E50
:107D40008A6E120021EC3EF0820E156EDE0EE82ED9
:107D5000FED7152EFCD795EC3FF0820E156EDE0E89
:107D6000E82EFED7152EFCD726EC3EF05CEC3EF05C
:107D700026EC3EF0610E4AEC3EF0EDEC3EF026ECD7
:107D80003EF0F8D7136E3F0EC716000EC66E1350A6
:107D9000C6121250C71205D0C78C13D0C78CC68824
:107DA00010D01150000AD8B4F7D7020AD8B4F6D7C9
:107DB000010AD8B4F4D705D0928A93840AD0939458
:107DC00008D01350040AD8B4F7D7010AD8B4F5D7AD
:107DD000F6D793809396C68A1200820E116EDE0E3D
:107DE000E82EFED7112EFCD7820E116EDE0EE82E85
:107DF000FED7112EFCD7820E116EDE0EE82EFED7B6
:107E0000112EFCD7820E116EDE0EE82EFED7112E3B
:107E1000FCD7820E116EDE0EE82EFED7112EFCD797
:107E2000820E116EDE0EE82EFED7112EFCD7820ECA
:107E3000116EDE0EE82EFED7112EFCD7820E116ECB
:107E4000DE0EE82EFED7112EFCD7820E116EDE0E4E
:107E5000E82EFED7112EFCD7820E116EDE0EE82E14
:107E6000FED7112EFCD712008D82820E116EDE0E0F
:107E7000E82EFED7112EFCD78D92820E116EDE0EEB
:107E8000E82EFED7112EFCD78D82820E116EDE0EEB
:107E9000E82EFED7112EFCD78D92820E116EDE0ECB
:107EA000E82EFED7112EFCD78D82820E116EDE0ECB
:107EB000E82EFED7112EFCD78D92820E116EDE0EAB
:107EC000E82EFED7112EFCD78D82820E116EDE0EAB
:107ED000E82EFED7112EFCD78D92820E116EDE0E8B
:107EE000E82EFED7112EFCD78D82820E116EDE0E8B
:107EF000E82EFED7112EFCD78D92820E116EDE0E6B
:107F0000E82EFED7112EFCD78D82820E116EDE0E6A
:107F1000E82EFED7112EFCD78D92820E116EDE0E4A
:107F2000E82EFED7112EFCD71200000E116E800E27
:107F3000126E010EC2EC3EF08198200E3BEC3EF03A
:107F4000020E3BEC3EF081888198210E3BEC3EF026
:107F5000000E3BEC3EF081888198220E3BEC3EF017
:107F6000010E3BEC3EF081888198230E3BEC3EF005
:107F7000010E3BEC3EF081888198240E3BEC3EF0F4
:107F8000000E3BEC3EF081888198250E3BEC3EF0E4
:107F9000010E3BEC3EF081888198260E3BEC3EF0D2
:107FA000260E3BEC3EF081888198310E3BEC3EF092
:107FB0000C0E3BEC3EF0818881982A0E3BEC3EF0A3
:107FC000A30E3BEC3EF0A30E3BEC3EF0A30E3BECCD
:107FD0003EF081888198300E3BEC3EF0A30E3BECE6
:107FE0003EF0A30E3BEC3EF0A30E3BEC3EF081884E
:107FF000820E146EDE0EE82EFED7142EFCD7120071
:020000040020DA
:08000000FFFFFFFFFFFFFFFF00
:020000040030CA
:0E00000000285F3CFFD385FF0FC00FE00F40CC
:00000001FF
