:020000040000FA
:0400000051EF21F0AB
:1008000000566F6C746167652069732E2E2E00256B
:100810002E326600494E46004E414E00696E66001B
:100820006E616E00206D56006C660000000E0001C7
:100830007B6F000E7A6F36C08CF037C08DF038C0F9
:100840008EF039C08FF08FBF2AEF04F028EF04F04C
:1008500042EF04F0000E7B6F010E7A6F8CC001F046
:100860008DC002F08EC003F08FC004F0B2EC20F017
:1008700001C08CF002C08DF003C08EF004C08FF078
:1008800042EF04F0000E0001936F000E926FC4C09F
:100890007FF0C5C080F07A517B11D8A452EF04F0EC
:1008A00054EF04F05DEF04F0C8A559EF04F05BEFDE
:1008B00004F081EF04F05DEF04F07A517B11D8A4CD
:1008C00064EF04F066EF04F06CEF04F0000E656F67
:1008D0002B0E646F72EF04F0000E656F2D0E646FC7
:1008E00072EF04F0000E9225D96E010E9321DA6E9C
:1008F00064C0DFFF924B932B7F07D8A0800781EF66
:1009000004F08CC001F08DC002F08EC003F08FC0E7
:1009100004F018EC1BF001040210D8A492EF04F0CC
:1009200094EF04F0FEEF04F0BF0E3B6EFF0E3C6E42
:100930003A503D6E3E6A3B503D263C503E223E5072
:100940000AE11A0E3D5CD8A0A8EF04F0ABEF04F06A
:10095000010EACEF04F0000E0001666F676BBCEF98
:1009600004F03AC001F0026AD2EC20F001C066F057
:1009700002C067F0BCEF04F0000166516711D8B403
:10098000C4EF04F0C6EF04F0D4EF04F0000E92259B
:10099000076E010E9321086E140E096E080E0A6E82
:1009A0007BEC1FF0E3EF04F0000E00019225076ED0
:1009B000010E9321086E1C0E096E080E0A6E7BEC68
:1009C0001FF0E3EF04F00001FD0E7F27FF0E8023F0
:1009D00034C011F035C012F0000E136E010E146E0B
:1009E0007FC015F080C016F06EEC1DF011C034F021
:1009F00012C035F0A6EF0AF0A6EF0AF08CC001F0A5
:100A00008DC002F08EC003F08FC004F018EC1BF014
:100A100001500210D8A40FEF05F011EF05F07BEFA5
:100A200005F0BF0E3B6EFF0E3C6E3A503D6E3E6AC7
:100A30003B503D263C503E223E500AE11A0E3D5CA2
:100A4000D8A025EF05F028EF05F0010E29EF05F0FD
:100A5000000E0001686F696B39EF05F03AC001F0D4
:100A6000026AD2EC20F001C068F002C069F039EFF0
:100A700005F0000168516911D8B441EF05F043EF6A
:100A800005F051EF05F0000E9225076E010E93213F
:100A9000086E180E096E080E0A6E7BEC1FF060EFF0
:100AA00005F0000E00019225076E010E9321086EDD
:100AB000200E096E080E0A6E7BEC1FF060EF05F049
:100AC0000001FD0E7F27FF0E802334C011F035C0DA
:100AD00012F0000E136E010E146E7FC015F080C070
:100AE00016F06EEC1DF011C034F012C035F0A6EF18
:100AF0000AF0A6EF0AF0000E0001946F000E956F49
:100B0000800E966F3F0E976F000E916F000E906FE4
:100B10008CC001F08DC002F08EC003F08FC004F0D5
:100B2000000E056E000E066E000E076E000E086EBB
:100B3000D9EC1DF0D8B09FEF05F0A1EF05F030EF34
:100B400006F0C4EF05F0C4EF05F094C00FF095C0B7
:100B500010F096C011F097C012F0000E136E000E48
:100B6000146E200E156E410E166EF1EC0FF00FC0D4
:100B700094F010C095F011C096F012C097F00001EB
:100B8000904B912BC4EF05F08CC028F08DC029F05C
:100B90008EC02AF08FC02BF0000E136E000E146E64
:100BA000200E156E410E166E94C00FF095C010F019
:100BB00096C011F097C012F0F1EC0FF00FC02CF0BE
:100BC00010C02DF011C02EF012C02FF046EC17F01F
:100BD000D8B0EDEF05F0EFEF05F0A5EF05F013EF5E
:100BE00006F013EF06F094C001F095C002F096C035
:100BF00003F097C004F0000E056E000E066E200E86
:100C0000076E410E086E28EC12F001C094F002C08D
:100C100095F003C096F004C097F000019007D8A0AB
:100C2000910713EF06F08CC028F08DC029F08EC01C
:100C30002AF08FC02BF094C02CF095C02DF096C0F8
:100C40002EF097C02FF046EC17F0D8A02AEF06F050
:100C50002CEF06F0F3EF05F030EF06F030EF06F082
:100C60003AC007F0086A3BEC1FF007500001816FA3
:100C700081C07EF0670E8119D8A441EF06F043EFE2
:100C800006F06DEF06F0C651C711D8A44AEF06F082
:100C90004CEF06F052EF06F0000EC76F010EC66F64
:100CA00052EF06F0C7BF5FEF06F0C75106E1C60579
:100CB000D8B05DEF06F05FEF06F065EF06F0000ECE
:100CC0007D6F060E7C6F82EF06F0C6C07CF0C7C059
:100CD0007DF082EF06F082EF06F0C7BF72EF06F0FC
:100CE00074EF06F07AEF06F0C6C07CF0C7C07DF066
:100CF00082EF06F0000E7D6F060E7C6F82EF06F02D
:100D000082EF06F0670E8119D8A489EF06F08BEF09
:100D100006F0BEEF06F091AF99EF06F0FC0E905D85
:100D2000FF0E9159D8A097EF06F099EF06F0B8EFB3
:100D300006F0FF0E3B6EFF0E3C6E7CC03DF07DC0AA
:100D40003EF03B503D263C503E2290513D5C3E5093
:100D5000800A3F6E9151800A3F58D8A0B2EF06F04A
:100D6000B4EF06F0B8EF06F0660E7E6FBEEF06F049
:100D7000650E7E6FBEEF06F0BEEF06F07CC074F02D
:100D80007DC075F0670E8119D8A4C9EF06F0CBEFCE
:100D900006F0DDEF06F0660E7E19D8A4D2EF06F05D
:100DA000D4EF06F0E1EF06F091BFDBEF06F0D9EFEC
:100DB00006F0E1EF06F0DDEF06F0744B752BE1EF86
:100DC00006F0660E7E19D8A4E8EF06F0EAEF06F00A
:100DD00010EF07F091BFF1EF06F0EFEF06F0FFEF35
:100DE00006F0000E946F000E956F800E966F3F0E0A
:100DF000976F000E916F000E906FFFEF06F0670E79
:100E00008119D8B406EF07F008EF07F010EF07F0EC
:100E1000905174279151752310EF07F010EF07F0F0
:100E2000000E8B6F000E8A6F8CC082F08DC083F035
:100E30008EC084F08FC085F094C060F095C061F0E2
:100E400096C062F097C063F0A3EF07F082C001F094
:100E500083C002F084C003F085C004F094C005F0A4
:100E600095C006F096C007F097C008F028EC12F085
:100E700001C01AF002C01BF003C01CF004C01DF03A
:100E800038EC14F01AC086F01BC087F01CC088F044
:100E90001DC089F086C001F087C002F088C003F051
:100EA00089C004F0FAEC17F001C078F002C079F0C4
:100EB00082C028F083C029F084C02AF085C02BF0BE
:100EC00094C013F095C014F096C015F097C016F0BA
:100ED00086C00FF087C010F088C011F089C012F0F2
:100EE000F1EC0FF00FC02CF010C02DF011C02EF05F
:100EF00012C02FF08DEC20F028C082F029C083F0C2
:100F00002AC084F02BC085F094C001F095C002F097
:100F100096C003F097C004F0000E056E000E066E3A
:100F2000200E076E410E086E28EC12F001C094F0FE
:100F300002C095F003C096F004C097F000018A4B00
:100F40008B2BA3EF07F074518A5D8B51800A3B6EA7
:100F50007551800A3B58D8A0B0EF07F0B2EF07F008
:100F600026EF07F0B4EF07F094C00FF095C010F033
:100F700096C011F097C012F0000E136E000E146EA2
:100F8000A00E156E400E166EF1EC0FF00FC086F03D
:100F900010C087F011C088F012C089F082C028F01C
:100FA00083C029F084C02AF085C02BF086C02CF0C5
:100FB00087C02DF088C02EF089C02FF046EC17F0C6
:100FC000D8B0E5EF07F0E7EF07F0F2EF07F0000E1B
:100FD0000001866F000E876F000E886F000E896F0C
:100FE0001FEF08F082C001F083C002F084C003F05C
:100FF00085C004F086C005F087C006F088C007F001
:1010000089C008F0D9EC1DF0D8A009EF08F00BEF6B
:1010100008F01FEF08F0000178B111EF08F013EFAE
:1010200008F01FEF08F0000E866F000E876F000EAD
:10103000886F000E896F1FEF08F01FEF08F08CC05B
:1010400001F08DC002F08EC003F08FC004F086C0A6
:1010500005F087C006F088C007F089C008F0A7EC4B
:101060000AF001C082F002C083F003C084F004C023
:1010700085F060C094F061C095F062C096F063C0E6
:1010800097F0650E00017E19D8B449EF08F04BEFD8
:1010900008F051EF08F090C076F091C077F055EF6E
:1010A00008F0000E776F000E766F000E736F000E63
:1010B000726F000E716F000E706F000E8B6F000E5E
:1010C0008A6F5AEF09F082C001F083C002F084C039
:1010D00003F085C004F094C005F095C006F096C0FA
:1010E00007F097C008F028EC12F001C01AF002C017
:1010F0001BF003C01CF004C01DF038EC14F01AC043
:1011000086F01BC087F01CC088F01DC089F086C027
:1011100001F087C002F088C003F089C004F0FAEC47
:1011200017F001C078F002C079F00001C8B99BEF58
:1011300008F09DEF08F0BAEF08F078517911D8A4C3
:10114000A4EF08F0A6EF08F0BAEF08F0670E8119D7
:10115000D8A4ADEF08F0AFEF08F0BAEF08F077BF12
:10116000B6EF08F0B4EF08F0BAEF08F0704B712B4F
:101170000CEF09F072517311D8A4C1EF08F0C3EF5E
:1011800008F0F1EF08F077BFCAEF08F0C8EF08F0F9
:10119000F1EF08F0000E9225D96E010E9321DA6E60
:1011A0002E0EDF6E924B932B7F07D8A08007000E88
:1011B000736F010E726FF1EF08F0F1EF08F0000E9F
:1011C0009225D96E010E9321DA6E300EDF6E924BAE
:1011D000932B7F07D8A080077007D8A07107F1EF85
:1011E00008F070517111D8A4F8EF08F0FAEF08F088
:1011F000DFEF08F0FCEF08F0000E9225D96E010E2B
:101200009321DA6E7851300FDF6E924B932B7F076C
:10121000D8A080070CEF09F082C028F083C029F025
:1012200084C02AF085C02BF094C013F095C014F050
:1012300096C015F097C016F086C00FF087C010F06A
:1012400088C011F089C012F0F1EC0FF00FC02CF043
:1012500010C02DF011C02EF012C02FF08DEC20F038
:1012600028C082F029C083F02AC084F02BC085F00A
:1012700094C001F095C002F096C003F097C004F04E
:10128000000E056E000E066E200E076E410E086EF3
:1012900028EC12F001C094F002C095F003C096F063
:1012A00004C097F000017607D8A077078A4B8B2BF4
:1012B0005AEF09F074518A5D8B51800A3B6E75516B
:1012C000800A3B58D8B067EF09F069EF09F07BEF6F
:1012D00009F093BF75EF09F0935109E14B0E925D50
:1012E000D8A075EF09F077EF09F063EF08F07BEF16
:1012F00009F07BEF09F072517311D8A482EF09F065
:1013000084EF09F097EF09F0C8A989EF09F08BEF96
:1013100009F097EF09F0000E9225D96E010E932186
:10132000DA6E2E0EDF6E924B932B97EF09F0000EC4
:101330009225D96E010E9321DA6E000EDF6E650ED6
:101340007E19D8A4A6EF09F0A8EF09F092EF0AF0F1
:10135000000E8B6F4F0E8A6F000E8A25D96E010E1C
:101360008B21DA6E000EDF6E000E7B6F000E7A6F3F
:1013700091BFBFEF09F0BDEF09F0C9EF09F0000E12
:101380007B6F010E7A6F906D911FD8B0912BC9EFD2
:1013900009F0000E7D6F020E7C6FFCEF09F08A07EA
:1013A000D8A08B07000E8A25D96E010E8B21DA6E2C
:1013B00090C001F091C002F0000E046E0A0E036EA0
:1013C00002EC1DF00150300FDF6E90C001F091C0B3
:1013D00002F0000E046E0A0E036E1DEC1CF001C03C
:1013E00090F002C091F000017C07D8A07D077F0734
:1013F000D8A08007FCEF09F090519111D8A403EF19
:101400000AF005EF0AF0CFEF09F07DBF12EF0AF006
:101410007D5106E17C05D8B010EF0AF012EF0AF01A
:10142000CFEF09F014EF0AF08A07D8A08B077A51A2
:101430007B11D8A41EEF0AF020EF0AF026EF0AF085
:10144000000E6B6F2B0E6A6F2CEF0AF0000E6B6FA5
:101450002D0E6A6F2CEF0AF0000E8A25D96E010E50
:101460008B21DA6E6AC0DFFF7F07D8A080078A076A
:10147000D8A08B07BF0E3B6EFF0E3C6E3A503D6E00
:101480003E6A3B503D263C503E223E500AE11A0E39
:101490003D5CD8A04EEF0AF051EF0AF0010E52EF7A
:1014A0000AF0000E6E6F6F6B61EF0AF03AC001F048
:1014B000026AD2EC20F001C06EF002C06FF061EF62
:1014C0000AF000016E516F11D8A469EF0AF06BEFBA
:1014D0000AF071EF0AF0000E6D6F650E6C6F77EF1A
:1014E0000AF0000E6D6F450E6C6F77EF0AF0000E7C
:1014F0008A25D96E010E8B21DA6E6CC0DFFF7F0763
:10150000D8A08007000E9225076E010E9321086E69
:10151000000E8A25096E010E8B210A6E7BEC1FF0EE
:1015200092EF0AF034C011F035C012F0000E136EC5
:10153000010E146E7FC015F080C016F06EEC1DF029
:1015400011C034F012C035F0A6EF0AF012000450BA
:10155000800B116E04500424136E03AEB2EF0AF038
:10156000B4EF0AF0B7EF0AF01380B7EF0AF01350A8
:10157000D8B4BDEF0AF0BFEF0AF0D6EF0AF0132897
:10158000D8A4C5EF0AF0C7EF0AF0D1EF0AF0000EB9
:10159000016E000E026E000E036E000E046ED1EF9F
:1015A0000AF0038E000E046EE0EF0AF0000E016EEA
:1015B000000E026E000E036E000E046EE0EF0AF0E5
:1015C0000850800B126E11501218D8B4EAEF0AF0CE
:1015D000ECEF0AF0EFEF0AF0118CEFEF0AF0085091
:1015E0000824126E07AEF7EF0AF0F9EF0AF0FCEFED
:1015F0000AF01280FCEF0AF01250D8B402EF0BF0A0
:1016000004EF0BF01BEF0BF01228D8A40AEF0BF03D
:101610000CEF0BF016EF0BF0000E056E000E066ED1
:10162000000E076E000E086E16EF0BF0078E000E10
:10163000086E25EF0BF0000E056E000E066E000E14
:10164000076E000E086E25EF0BF01350125CD8B039
:101650002CEF0BF02EEF0BF059EF0BF011AC33EF3A
:101660000BF035EF0BF039EF0BF0800E111A39EF5C
:101670000BF013C014F012C013F014C012F001C02C
:1016800014F005C001F014C005F002C014F006C04B
:1016900002F014C006F003C014F007C003F014C039
:1016A00007F004C014F008C004F014C008F059EFAB
:1016B0000BF0000E146E1350096E0A6A091E0A1E02
:1016C000094A0A2A12500B6E0C6A09500B260A505E
:1016D0000C220CBE75EF0BF00C5009E11A0E0B5CDE
:1016E000D8A075EF0BF077EF0BF0B4EF0BF00150D3
:1016F000021003100410D8A480EF0BF083EF0BF05E
:10170000010E84EF0BF0000E146E000E016E000E41
:10171000026E000E036E000E046E12C013F0BFEFD7
:101720000BF0B4EF0BF014A098EF0BF09AEF0BF066
:10173000A0EF0BF0D89014300109146EA4EF0BF059
:10174000D8901432A4EF0BF001A0A9EF0BF0ABEF8F
:101750000BF0AEEF0BF0148EAEEF0BF0043404324E
:10176000033202320132132A1250135CD8A0BBEFAD
:101770000BF0BDEF0BF093EF0BF0BFEF0BF011BCD4
:10178000C4EF0BF0C6EF0BF00EEF0CF01350D8A423
:10179000CCEF0BF0CEEF0BF0DAEF0BF0000E016E9A
:1017A000000E026E000E036E000E046E68EF0DF068
:1017B00068EF0DF005500126065002220750032263
:1017C0000850042204A0E7EF0BF0E9EF0BF0BEEFA6
:1017D0000CF014A0EEEF0BF0F0EF0BF0F6EF0BF0C7
:1017E000D89014300109146EFAEF0BF0D89014322F
:1017F000FAEF0BF001A0FFEF0BF001EF0CF004EF9C
:101800000CF0148E04EF0CF0043404320332023274
:101810000132132ABEEF0CF0BEEF0CF00550015C54
:1018200006500258075003580450800A096E0850A9
:10183000800A0958D8B01FEF0CF021EF0CF05FEFD1
:101840000CF001C009F002C00AF003C00BF004C0A4
:101850000CF0091E0A1E0B1E0C1E092A000E0A227D
:101860000B220C22055009240D6E06500A200E6E24
:1018700007500B200F6E08500C20106EFF0E0D2429
:10188000016EFF0E0E20026EFF0E0F20036EFF0E84
:101890001020046E800E111A146C1450D8A453EF4B
:1018A0000CF055EF0CF067EF0CF0010E0126000E66
:1018B00002220322042267EF0CF067EF0CF00550C0
:1018C000015E0650025A0750035A0850045A01504C
:1018D000021003100410D8A470EF0CF072EF0CF09B
:1018E000B3EF0CF01450D8A478EF0CF07AEF0CF0B2
:1018F000B3EF0CF0000E016E000E026E000E036ED0
:10190000000E046E68EF0DF068EF0DF0B3EF0CF011
:10191000D890013602360336043614AE92EF0CF03E
:1019200094EF0CF097EF0CF0018097EF0CF014A0FF
:101930009CEF0CF09EEF0CF0A2EF0CF0D880143668
:10194000A6EF0CF0D8901436A6EF0CF01350D8B4D4
:10195000ACEF0CF0AEEF0CF0B3EF0CF01306B3EFFE
:101960000CF0B3EF0CF003AEB8EF0CF0BAEF0CF0E4
:1019700088EF0CF0BEEF0CF0BEEF0CF0000E126E14
:1019800014AEC5EF0CF0C7EF0CF0E3EF0CF014C091
:1019900009F07F0E0916D8B4D0EF0CF0D2EF0CF09E
:1019A000D6EF0CF0010E126EE3EF0CF001A0DBEFAE
:1019B0000CF0DDEF0CF0E3EF0CF0010E126EE3EF34
:1019C0000CF0E3EF0CF01250D8B4E9EF0CF0EBEFB1
:1019D0000CF01CEF0DF0010E0126000E0222032276
:1019E000042204A0F6EF0CF0F8EF0CF01CEF0DF061
:1019F00001C009F002C00AF003C00BF004C00CF0F3
:101A00000C340C320B320A32093209C001F00AC020
:101A100002F00BC003F00CC004F01328D8B413EF8D
:101A20000DF015EF0DF01CEF0DF0132A1CEF0DF06B
:101A30001CEF0DF01CEF0DF01328D8B422EF0DF0C1
:101A400024EF0DF02EEF0DF01350D8A42AEF0DF077
:101A50002CEF0DF044EF0DF02EEF0DF0000E016EA7
:101A6000000E026E000E036E000E046E1350D8A41A
:101A70003CEF0DF03EEF0DF044EF0DF0000E116E57
:101A800044EF0DF044EF0DF013A049EF0DF04BEFD4
:101A90000DF04EEF0DF0038E51EF0DF0039E51EF60
:101AA0000DF0D8901330046E11AE59EF0DF05BEFCE
:101AB0000DF05EEF0DF0048E5EEF0DF001C001F051
:101AC00002C002F003C003F004C004F068EF0DF0A0
:101AD000120042C0D9FF43C0DAFFDECFF6FFDDCFF0
:101AE000F7FF0800F550250AD8A479EF0DF07BEF39
:101AF0000DF0D1EF0FF042C0D9FF43C0DAFFDE2A6C
:101B0000000EDD22000E0001C56F000EC46FC4C0C0
:101B1000C8F0C5C0C9F0C669C76942C0D9FF43C093
:101B2000DAFFDECFF6FFDDCFF7FF0800F5502E0A13
:101B3000D8A49DEF0DF09FEF0DF03AEF0EF0000EE0
:101B4000C76F000EC66F42C0D9FF43C0DAFFDE2A5E
:101B5000000EDD2242C0D9FF43C0DAFFDECFF6FF20
:101B6000DDCFF7FF0800F5502A0AD8A4BAEF0DF030
:101B7000BCEF0DF0D9EF0DF042C0D9FF43C0DAFF42
:101B8000DE2A000EDD2244C0D9FF45C0DAFFDFCFD8
:101B900046F0020EDE26DFCF47F0000EDD2246C003
:101BA000D9FF47C0DAFFDECFC6F0DDCFC7F03AEF8E
:101BB0000EF042C0D9FF43C0DAFFDECF08F0DDCF20
:101BC00009F051EC15F008C0C6F009C0C7F0F2EFFB
:101BD0000DF042C0D9FF43C0DAFFDE2A000EDD223D
:101BE000F2EF0DF0D00E466EFF0E476E42C0D9FFE9
:101BF00043C0DAFFDECFF6FFDDCFF7FF0800F55078
:101C0000486E496A465048264750492249500AE1E1
:101C10000A0E485CD8A00FEF0EF012EF0EF0010E86
:101C200013EF0EF0000E4A6E4B6A2BEF0EF042C01F
:101C3000D9FF43C0DAFFDECFF6FFDDCFF7FF0800A4
:101C4000F550016E026AF0EC20F001C04AF002C0CB
:101C50004BF02BEF0EF04A504B10D8A432EF0EF0A1
:101C600034EF0EF0E9EF0DF03AEF0EF03AEF0EF030
:101C70003AEF0EF042C0D9FF43C0DAFFDECFF6FFE5
:101C8000DDCFF7FF0800F550076E086A3BEC1FF048
:101C90000750526E5250D8B450EF0EF052EF0EF083
:101CA0008EEF0EF042C0D9FF43C0DAFFDECF46F020
:101CB000DDCF47F0010E4626000E472246C0F6FF54
:101CC00047C0F7FF0800F550076E086A3BEC1FF0AD
:101CD0000750536E5350D8B470EF0EF072EF0EF001
:101CE0008EEF0EF042C0D9FF43C0DAFFDECF46F0E0
:101CF000DDCF47F0020E4626000E472246C0F6FF13
:101D000047C0F7FF0800F550076E086A3BEC1FF06C
:101D10000750546E8EEF0EF08EEF0EF0660E5218D6
:101D2000D8A495EF0EF097EF0EF0D9EF0EF042C069
:101D3000D9FF43C0DAFFDECFF6FFDDCFF7FF0800A3
:101D4000F5CF55F042C0D9FF43C0DAFFDE2A000EBE
:101D5000DD2244C0D9FF45C0DAFFDFCF46F0040ED4
:101D6000DE26DFCF47F0000EDD2246C0D9FF47C098
:101D7000DAFFDECF4EF0DECF4FF0DECF50F0DECF19
:101D800051F040C034F041C035F04EC036F04FC085
:101D900037F050C038F051C039F055C03AF016EC69
:101DA00004F034C040F035C041F0F0EF0FF0F0EF38
:101DB0000FF0520E016E000E026E280E036E080E1A
:101DC000046E000E066E020E056E9FEC1BF00150B5
:101DD0000210D8A4EEEF0EF0F0EF0EF097EF0FF038
:101DE00042C0D9FF43C0DAFFDECF46F0DDCF47F077
:101DF000010E4626000E472246C0F6FF47C0F7FFF9
:101E00000800F5CF55F0BF0E466EFF0E476E42C07C
:101E1000D9FF43C0DAFFDECFF6FFDDCFF7FF0800C2
:101E2000F550486E496A4650482647504922495065
:101E30000AE11A0E485CD8A020EF0FF023EF0FF054
:101E4000010E24EF0FF0000E4C6E4D6A3CEF0FF0C8
:101E500042C0D9FF43C0DAFFDECFF6FFDDCFF7FF88
:101E60000800F550016E026AD2EC20F001C04CF07F
:101E700002C04DF03CEF0FF04C504D10D8B443EF82
:101E80000FF045EF0FF05FEF0FF044C0D9FF45C0F2
:101E9000DAFFDFCF46F0040EDE26DFCF47F0000E7C
:101EA000DD2246C0D9FF47C0DAFFDECF4EF0DECFDD
:101EB0004FF0DECF50F0DECF51F077EF0FF044C09F
:101EC000D9FF45C0DAFFDFCF46F0040EDE26DFCFB4
:101ED00047F0000EDD2246C0D9FF47C0DAFFDECF53
:101EE0004EF0DECF4FF0DECF50F0DECF51F0020EDD
:101EF00042C0D9FF43C0DAFFDE26000EDD2240C01B
:101F000034F041C035F04EC036F04FC037F050C00D
:101F100038F051C039F055C03AF016EC04F034C036
:101F200040F035C041F0F0EF0FF0F0EF0FF042C09D
:101F3000D9FF43C0DAFFDECFF6FFDDCFF7FF0800A1
:101F4000F550250AD8A4A7EF0FF0A9EF0FF0C2EFC4
:101F50000FF042C0D9FF43C0DAFFDE2A000EDD22B7
:101F6000000E026E250E016E40C003F041C004F069
:101F700093EC1CF0000E416E010E406EF0EF0FF07E
:101F8000F0EF0FF042C0D9FF43C0DAFFDE2A000EA7
:101F9000DD22000E416E000E406EF0EF0FF0F0EF0C
:101FA0000FF042C0D9FF43C0DAFFDECFF6FFDDCF2E
:101FB000F7FF0800F550016E026A40C003F041C00F
:101FC00004F093EC1CF042C0D9FF43C0DAFFDE2AD4
:101FD000000EDD22000E416E010E406EF0EF0FF09C
:101FE00012001250800B1B6E12501224216E11AE83
:101FF000FCEF0FF0FEEF0FF001EF10F0218001EF8A
:1020000010F02150D8B407EF10F009EF10F01EEFD8
:1020100010F02128D8A40FEF10F011EF10F01BEFF3
:1020200010F0000E0F6E000E106E000E116E000EFE
:10203000126E1BEF10F0118E28EF10F0000E0F6ED5
:10204000000E106E000E116E000E126E28EF10F0D2
:102050001650800B1B1A16501624206E15AE33EF47
:1020600010F035EF10F038EF10F0208038EF10F05E
:102070002050D8B43EEF10F040EF10F055EF10F0C4
:102080002028D8A446EF10F048EF10F052EF10F0DF
:10209000000E136E000E146E000E156E000E166EFE
:1020A00052EF10F0158E5DEF10F0000E136E000E63
:1020B000146E000E156E000E166E2050D8B463EF2D
:1020C00010F065EF10F06FEF10F02150D8A46BEF17
:1020D00010F06DEF10F07BEF10F06FEF10F0000ECE
:1020E0000F6E000E106E000E116E000E126E27EFB6
:1020F00012F027EF12F015500F02F3CF26F0F4CFB5
:1021000027F026501C6E1D6A1E6A1F6A2750226E19
:10211000236A246A256A14501002F3CF26F0F4CF04
:1021200027F026501C26000E1D221E221F2227509B
:102130002226000E23222422252213501102F3CF3F
:1021400026F0F4CF27F026501C26000E1D221E225A
:102150001F2227502226000E2322242225221EC0C1
:102160001FF01DC01EF01CC01DF01C6A1350100291
:10217000F3CF26F0F4CF27F026501C2627501D223F
:10218000000E1E22000E1F2214500F02F3CF26F065
:10219000F4CF27F026501C2627501D22000E1E22A9
:1021A000000E1F221EC01FF01DC01EF01CC01DF01F
:1021B0001C6A13500F02F3CF26F0F4CF27F02650FD
:1021C0001C2627501D22000E1E22000E1F22155015
:1021D0001002F3CF26F0F4CF27F026502226275006
:1021E0002322000E2422000E252214501102F3CFC8
:1021F00026F0F4CF27F02650222627502322000E67
:102200002422000E252215501102F3CF26F0F4CF20
:1022100027F02650176E2750186E196A1A6A19C0CF
:102220001AF018C019F017C018F0176A17502226B4
:1022300018502322195024221A5025221CC017F0AE
:102240001DC018F01EC019F01FC01AF0190E2EEF95
:1022500011F0D8901A32193218321732E82E29EFBD
:1022600011F01750222618502322195024221A50F8
:1022700025221EC01FF01DC01EF01CC01DF01C6AD0
:10228000205021C017F0186A1726000E1822820E5F
:102290001724266EFF0E1820276E66EF11F0D890D7
:1022A00022362336243625361FAE59EF11F05BEF68
:1022B00011F05CEF11F02280D8901C361D361E36CE
:1022C0001F362606D8A0270666EF11F024AE6BEF66
:1022D00011F06DEF11F04FEF11F06FEF11F0000EF4
:1022E000206E1FAE76EF11F078EF11F0A0EF11F035
:1022F000FF0E1C14176EFF0E1D14186EFF0E1E1419
:10230000196E7F0E1F141A6E1750181019101A101C
:10231000D8B48DEF11F08FEF11F093EF11F0010EA3
:10232000206EA0EF11F022A098EF11F09AEF11F0BB
:10233000A0EF11F0010E206EA0EF11F0A0EF11F050
:102340002050D8B4A6EF11F0A8EF11F0D0EF11F0A3
:10235000010E2226000E23222422252225A0B3EFDF
:1023600011F0B5EF11F0D0EF11F022C017F023C03B
:1023700018F024C019F025C01AF01A341A32193294
:102380001832173217C022F018C023F019C024F0F9
:102390001AC025F0264A272AD0EF11F0D0EF11F00D
:1023A00027BEDBEF11F0275008E12628D8A0DBEF8D
:1023B00011F0DDEF11F0E7EF11F0000E226E000ECC
:1023C000236E800E246E7F0E256E1BEF12F027BE4B
:1023D000F4EF11F0275006E12604D8B0F2EF11F027
:1023E000F4EF11F000EF12F0000E226E000E236EDB
:1023F000000E246E000E256E000E1B6E1BEF12F0F9
:1024000026C021F0FF0E2216FF0E23167F0E241683
:10241000000E251621A00FEF12F011EF12F014EFAD
:1024200012F0248E14EF12F0D8902130256E1BEF9D
:1024300012F01BEF12F01B50251222C00FF023C028
:1024400010F024C011F025C012F027EF12F0120096
:102450000450800B116E04500424186E03AE33EF49
:1024600012F035EF12F038EF12F0188038EF12F05A
:102470001850D8B43EEF12F040EF12F057EF12F0C0
:102480001828D8A446EF12F048EF12F052EF12F0DD
:10249000000E016E000E026E000E036E000E046E42
:1024A00052EF12F0038E000E046E61EF12F0000E78
:1024B000016E000E026E000E036E000E046E61EFE0
:1024C00012F00850800B111A08500824196E07AE3C
:1024D0006CEF12F06EEF12F071EF12F0198071EFE5
:1024E00012F01950D8B477EF12F079EF12F090EFA4
:1024F00012F01928D8A47FEF12F081EF12F08BEFC1
:1025000012F0000E056E000E066E000E076E000E35
:10251000086E8BEF12F0078E000E086E9AEF12F025
:10252000000E056E000E066E000E076E000E086EA1
:102530009AEF12F00550061007100810D8A4A3EF68
:1025400012F0A5EF12F0BFEF12F0000E016E000EB8
:10255000026E000E036E000E046E800E03127F0EDC
:1025600004121150041201C001F002C002F003C0B5
:1025700003F004C004F037EF14F037EF14F01850F4
:10258000D8A4C5EF12F0C7EF12F0DBEF12F0000E87
:10259000016E000E026E000E036E000E046E01C08E
:1025A00001F002C002F003C003F004C004F037EFF2
:1025B00014F037EF14F01950096E0A6A091E0A1E4A
:1025C000094A0A2A18500B6E0C6A09500B260A5049
:1025D0000C227F0E0B24126E000E0C20136E01C015
:1025E0000DF002C00EF003C00FF004C010F0000E9A
:1025F000016E000E026E000E036E000E046E000EE1
:10260000146E000E156E000E166E000E176E000E84
:10261000196E47EF13F01950D8B411EF13F013EF00
:1026200013F02CEF13F0D8900D360E360F3610360F
:10263000D890013602360336043617AE22EF13F077
:1026400024EF13F025EF13F00180D89014361536DF
:10265000163617362CEF13F005500D5C06500E5849
:1026600007500F5808501058D8A039EF13F03BEF1F
:1026700013F046EF13F0178C05500D5E06500E5AFE
:1026800007500F5A0850105A46EF13F0192A190E26
:1026900019644DEF13F04FEF13F00BEF13F051EF00
:1026A00013F00D500E100F101010D8B45AEF13F095
:1026B0005CEF13F078EF13F0148078EF13F078EFFD
:1026C00013F0D890013602360336043617AE6BEF9E
:1026D00013F06DEF13F06EEF13F00180D890143605
:1026E0001536163617361206D8A0130678EF13F0F3
:1026F00003AE7DEF13F07FEF13F061EF13F081EF86
:1027000013F0000E196E17AE88EF13F08AEF13F076
:10271000B2EF13F0FF0E1414096EFF0E15140A6EBB
:10272000FF0E16140B6E7F0E17140C6E09500A1054
:102730000B100C10D8B49FEF13F0A1EF13F0A5EF1E
:1027400013F0010E196EB2EF13F001A0AAEF13F00F
:10275000ACEF13F0B2EF13F0010E196EB2EF13F0FD
:10276000B2EF13F01950D8B4B8EF13F0BAEF13F07A
:10277000E2EF13F0010E0126000E022203220422D2
:1027800004A0C5EF13F0C7EF13F0E2EF13F001C0A0
:1027900009F002C00AF003C00BF004C00CF00C34C6
:1027A0000C320B320A32093209C001F00AC002F0C1
:1027B0000BC003F00CC004F0124A132AE2EF13F02E
:1027C000E2EF13F013BEEDEF13F0135008E11228FF
:1027D000D8A0EDEF13F0EFEF13F0FCEF13F0000EC5
:1027E000136E1268000E016E000E026E000E036E74
:1027F000000E046EFCEF13F013BE09EF14F013503B
:1028000006E11204D8B007EF14F009EF14F019EF45
:1028100014F0000E136E000E126E000E016E000E0C
:10282000026E000E036E000E046E000E116E19EFA4
:1028300014F012C018F018A020EF14F022EF14F0DA
:1028400025EF14F0038E28EF14F0039E28EF14F008
:10285000D8901830046E1150041201C001F002C06B
:1028600002F003C003F004C004F037EF14F01200CC
:10287000BAC02AF0BBC02BF0BCC02CF0BDC02DF0FC
:102880001AC02AF01BC02BF01CC02CF01DC02DF06C
:10289000810E1E6EFF0E1F6E2AC020F02BC021F08D
:1028A0002CC022F02DC023F0180E5CEF14F0D8904D
:1028B0002332223221322032E82E57EF14F02050FA
:1028C0001E24286E000E1F20296E29BE71EF14F001
:1028D000295009E1170E285CD8A071EF14F073EFAE
:1028E00014F07DEF14F01AC01AF01BC01BF01CC0CE
:1028F0001CF01DC01DF050EF15F029BE82EF14F042
:1029000084EF14F0FCEF14F028C01EF0FF0E1F6ED1
:10291000FF0E206E7F0E216E000E226E1E6693EF5C
:1029200014F09BEF14F022342232213220321F3275
:102930001E2E8EEF14F01FC024F020C025F021C001
:1029400026F022C027F024502A141E6E25502B1486
:102950001F6E26502C14206E27502D14216E1E50F1
:102960001F1020102110D8A4B8EF14F0BAEF14F003
:10297000C4EF14F01AC01AF01BC01BF01CC01CF0EE
:102980001DC01DF050EF15F02AC01EF02BC01FF027
:102990002CC020F02DC021F0200ED4EF14F0D890E0
:1029A000213220321F321E32E82ECFEF14F01E509B
:1029B0001F1020102110D8B4E0EF14F0E2EF14F053
:1029C000EAEF14F024502A2625502B2226502C22E0
:1029D00027502D22241C1E6E251C1F6E261C206EC7
:1029E000271C216E1E502A161F502B1620502C1605
:1029F00021502D1646EF15F02AC01EF02BC01FF0F7
:102A00002CC020F02DC021F0200E0CEF15F0D89036
:102A1000213220321F321E32E82E07EF15F01E50F1
:102A20001F1020102110D8A418EF15F01AEF15F080
:102A300024EF15F0000E2A6E000E2B6E000E2C6E89
:102A4000000E2D6E46EF15F0D8902A341E6E2B34F2
:102A50001F6E2C34206E2D34216E1E501F1020103E
:102A60002110D8B436EF15F038EF15F046EF15F019
:102A7000000E2A6E000E2B6E800E2C6EBF0E2D6E79
:102A800046EF15F046EF15F046EF15F02AC01AF0A4
:102A90002BC01BF02CC01CF02DC01DF050EF15F00A
:102AA0001200000E166E000E156E000E0F6E000E58
:102AB0000E6E5FEF15F0084A092A5FEF15F0010E60
:102AC000146E08C0F6FF09C0F7FF0800F550200A91
:102AD000D8B46DEF15F06FEF15F08EEF15F0F70E1F
:102AE0000A6EFF0E0B6E08C0F6FF09C0F7FF080064
:102AF000F5500C6E0D6A0A500C260B500D220D502D
:102B000009E1050E0C5CD8A088EF15F08AEF15F0EE
:102B10008EEF15F0000E146E8EEF15F014C010F04D
:102B2000116AA3EF15F008C0F6FF09C0F7FF08000F
:102B3000F550016E026A11EC20F001C010F002C0E5
:102B400011F0A3EF15F010501110D8A4AAEF15F052
:102B5000ACEF15F05BEF15F0BAEF15F0BAEF15F02A
:102B6000000E0F6E010E0E6EB6EF15F0084A092A20
:102B7000FEEF15F008C0F6FF09C0F7FF0800F5509A
:102B80000A6E0B6A0B50000AD8B4C9EF15F0FEEFBD
:102B900015F00A502B0AD8B4B6EF15F0060AD8B4CF
:102BA000B0EF15F0FEEF15F0FEEF15F0D00E0A6E47
:102BB000FF0E0B6E08C0F6FF09C0F7FF0800F550C6
:102BC0000C6E0D6A0A500C260B500D220C1E0D1EA9
:102BD0000C4A0D2A15C001F016C002F0000E046E5A
:102BE0000A0E036E3CEC21F00C500124156E0D50C2
:102BF0000220166E084A092AFEEF15F0D00E0A6E62
:102C0000FF0E0B6E08C0F6FF09C0F7FF0800F55075
:102C10000C6E0D6A0A500C260B500D220D500AE165
:102C20000A0E0C5CD8A017EF16F01AEF16F0010E82
:102C30001BEF16F0000E126E136A2FEF16F008C08D
:102C4000F6FF09C0F7FF0800F550016E026AF0ECCC
:102C500020F001C012F002C013F02FEF16F0125056
:102C60001310D8A436EF16F038EF16F0D6EF15F0A3
:102C70003AEF16F00E500F10D8A441EF16F043EFC4
:102C800016F051EF16F015C00AF016C00BF00A1E30
:102C90000B1E0A4A0B2A0AC008F00BC009F057EFB6
:102CA00016F015C008F016C009F057EF16F0120024
:102CB000096E0950D8B45FEF16F061EF16F083EF9C
:102CC00016F004BE68EF16F066EF16F083EF16F00C
:102CD00001C005F002C006F003C007F004C008F010
:102CE000051E061E071E081E052A000E06220722C4
:102CF000082205C00BF006C00CF007C00DF008C09C
:102D00000EF08DEF16F001C00BF002C00CF003C006
:102D10000DF004C00EF08DEF16F0015002100310FC
:102D20000410D8A496EF16F098EF16F0A4EF16F062
:102D3000000E016E000E026E000E036E000E046E99
:102D400045EF17F045EF17F0960E0A6EB0EF16F04C
:102D50000A2AD8900E320D320C320B32B0EF16F038
:102D6000000E0B14056E000E0C14066E000E0D14F2
:102D7000076EFE0E0E14086E0550061007100810A0
:102D8000D8A4C5EF16F0C7EF16F0A8EF16F0D7EFEE
:102D900016F0D7EF16F00A2A010E0B26000E0C22B1
:102DA0000D220E22D8900E320D320C320B32000E54
:102DB0000B14056E000E0C14066E000E0D14076E3B
:102DC000FF0E0E14086E0550061007100810D8A448
:102DD000ECEF16F0EEEF16F0CBEF16F0FAEF16F080
:102DE000FAEF16F00A06D8900B360C360D360E3672
:102DF000FAEF16F00DBEFFEF16F001EF17F00BEF34
:102E000017F0020E0A6007EF17F009EF17F0F2EF64
:102E100016F00BEF17F00AB010EF17F012EF17F0E3
:102E200015EF17F00D9E15EF17F0D8900A320AC073
:102E300005F0066A076A086A05C008F0076A066AAC
:102E4000056A05500B1206500C1207500D1208505F
:102E50000E120950D8B42FEF17F031EF17F03BEFF7
:102E600017F004BE38EF17F036EF17F03BEF17F00E
:102E70000E8E3BEF17F00BC001F00CC002F00DC03E
:102E800003F00EC004F045EF17F01200000E2814F6
:102E9000306E000E2914316E800E2A14326E7F0EB1
:102EA0002B14336E3050311032103310D8A45BEF36
:102EB00017F05DEF17F067EF17F0000E286E000EA9
:102EC000296E000E2A6E000E2B6E67EF17F0000EB3
:102ED0002C14306E000E2D14316E800E2E14326EB6
:102EE0007F0E2F14336E3050311032103310D8A4AF
:102EF0007CEF17F07EEF17F088EF17F0000E2C6EC6
:102F0000000E2D6E000E2E6E000E2F6E88EF17F045
:102F10002BAE8DEF17F08FEF17F0AEEF17F028C044
:102F200030F029C031F02AC032F02BC033F0301E0F
:102F3000311E321E331E302A000E3122322233223D
:102F4000000E3024286E000E3120296E000E322033
:102F50002A6E800E33202B6EAEEF17F02FAEB3EF3C
:102F600017F0B5EF17F0D2EF17F02CC030F02DC0EE
:102F700031F02EC032F02FC033F0301E311E321E21
:102F8000331E302A000E312232223322000E30242A
:102F90002C6E000E31202D6E000E32202E6E800E13
:102FA00033202F6E000E281A000E291A000E2A1A3E
:102FB000800E2B1A000E2C1A000E2D1A000E2E1A3F
:102FC000800E2F1A2C50285C2D5029582E502A582C
:102FD0002F502B58D8B0EFEF17F0F1EF17F0F4EFB8
:102FE00017F0D890F9EF17F0D880F9EF17F0F9EF54
:102FF00017F01200033404340A6E0A50D8A403EF09
:1030000018F005EF18F011EF18F0000E016E000E29
:10301000026E000E036E000E046EA2EF18F0A2EF17
:1030200018F001C005F002C006F003C007F004C0AC
:1030300008F0200E21EF18F0D8900832073206323F
:103040000532E82E1CEF18F00550096E038EFF0EB6
:103050000116FF0E0216FF0E0316000E0416960E42
:103060000A5E0ABE38EF18F036EF18F05CEF18F081
:103070000A50800A970FD8B040EF18F042EF18F0CE
:1030800050EF18F0000E016E000E026E000E036E7F
:10309000000E046EA2EF18F0A2EF18F050EF18F037
:1030A000D89004320332023201320A3E50EF18F057
:1030B00086EF18F086EF18F01F0E0A6462EF18F022
:1030C00064EF18F07AEF18F0000E016E000E026E39
:1030D000000E036E000E046EA2EF18F0A2EF18F0BF
:1030E0007AEF18F0D89001360236033604360A0615
:1030F0007AEF18F00A50D8A480EF18F082EF18F099
:1031000072EF18F086EF18F086EF18F00950D8B477
:103110008CEF18F08EEF18F098EF18F0041E031ED5
:10312000021E016C000E02220322042298EF18F006
:1031300001C001F002C002F003C003F004C004F0BB
:10314000A2EF18F01200000E0F015E6F959E959C85
:10315000959A9598959695929594839E839C839A3B
:103160008398839683928394080E046E230EE82E30
:10317000FED7042EFCD700F0080E046E230EE82EB6
:10318000FED7042EFCD700F0080E046E230EE82EA6
:10319000FED7042EFCD700F0080E046E230EE82E96
:1031A000FED7042EFCD700F0080E046E230EE82E86
:1031B000FED7042EFCD700F0080E046E230EE82E76
:1031C000FED7042EFCD700F0010E056E030E056439
:1031D000ECEF18F0EEEF18F0F2EF18F018EF19F02E
:1031E00018EF19F0839E839C838A83888396839249
:1031F000839E839C838A83888386839200D000D0B9
:1032000000F0839E839C838A838883968392080E32
:10321000046E230EE82EFED7042EFCD700F0052AFC
:10322000030E056416EF19F018EF19F0F2EF18F01D
:10323000839E839C838A839883968392839E839CB8
:10324000838A83988386839200D000D000F0839E87
:10325000839C838A839883968392080E046E230E40
:10326000E82EFED7042EFCD700F0280E056E055080
:1032700083EC1AF0100E056E055083EC1AF0010E67
:10328000056E055083EC1AF00F0E056E055083ECA9
:103290001AF01200720ED36EA3EC18F062EC21F05B
:1032A000000E0F015B6F000E806E000E926E5F933A
:1032B0009692010E046E010E056E080E066E010E4A
:1032C00036EC1EF00C0E83EC1AF067EF19F0000ECE
:1032D000026E050E016EE7EC1EF001C0B4F002C0F4
:1032E000B5F0B4C001F0B5C002F0000E02BEFF0E92
:1032F000036E046E010E58EC16F001C00FF002C010
:1033000010F003C011F004C012F0000E136E000E96
:10331000146EA00E156E3B0E166EF1EC0FF00FC082
:10332000B6F010C0B7F011C0B8F012C0B9F0AA0ED4
:103330000001986F000E996F0F0E9A6F080E9B6F29
:10334000B6C09CF0B7C09DF0B8C09EF0B9C09FF069
:10335000E2EC1FF0AA0E116E000E126E240E136E18
:10336000080E146E27EC21F0040E046EAA0E056EF2
:10337000000E066E020E90EC1EF0060E5F6E130E2F
:103380005E6EAE0EE82EFED75E2EFCD75F2EFAD70D
:10339000B6C001F0B7C002F0B8C003F0B9C004F085
:1033A000000E056E000E066EA00E076E400E086E33
:1033B000D9EC1DF0D8A0DFEF19F0E1EF19F067EFBD
:1033C00019F00EEC21F067EF19F067EF19F067EFD5
:1033D00019F000EF00F0036E83968382016A03AE5A
:1033E00001D0012A010E0116013201328350011869
:1033F0007F0B0118836E03C001F0060E026ED89099
:103400000132022EFFEF19F0010E0116013A0146BA
:10341000014683500118BF0B0118836E03C001F0F1
:10342000050E026ED8900132022E12EF1AF0010E34
:103430000116013A014683500118DF0B0118836E13
:1034400003C001F0013A0F0E0116010E0116013AF8
:1034500083500118EF0B0118836E030EE82EFED780
:1034600000F0838600D000D000F0839603C001F006
:10347000D8900132D8900132D8900132010E011655
:1034800001320132835001187F0B0118836E03C093
:1034900001F0D8900132D8900132010E0116013AA4
:1034A0000146014683500118BF0B0118836E03C00B
:1034B00001F0D8900132010E0116013A0146835005
:1034C0000118DF0B0118836E03C001F0010E011615
:1034D000013A83500118EF0B0118836E030EE82E9A
:1034E000FED700F0838600D000D000F0839600D095
:1034F00000D000F0080E016E230EE82EFED7012E3C
:10350000FCD700F01200036E83968392016A03AE2B
:1035100001D0012A010E0116013201328350011837
:103520007F0B0118836E03C001F0060E026ED89067
:103530000132022E97EF1AF0010E0116013A0146F0
:10354000014683500118BF0B0118836E03C001F0C0
:10355000050E026ED8900132022EAAEF1AF0010E6B
:103560000116013A014683500118DF0B0118836EE2
:1035700003C001F0013A0F0E0116010E0116013AC7
:1035800083500118EF0B0118836E030EE82EFED74F
:1035900000F0838600D000D000F0839603C001F0D5
:1035A000D8900132D8900132D8900132010E011624
:1035B00001320132835001187F0B0118836E03C062
:1035C00001F0D8900132D8900132010E0116013A73
:1035D0000146014683500118BF0B0118836E03C0DA
:1035E00001F0D8900132010E0116013A01468350D4
:1035F0000118DF0B0118836E03C001F0010E0116E4
:10360000013A83500118EF0B0118836E030EE82E68
:10361000FED700F0838600D000D000F08396080E1D
:10362000016E230EE82EFED7012EFCD700F012000B
:10363000BEC00BF0BFC00CF0C0C00DF0C1C00EF09A
:1036400001C00BF002C00CF003C00DF004C00EF07E
:103650000BC005F00CC006F00DC007F00EC008F05E
:10366000180E38EF1BF0D8900832073206320532B8
:10367000E82E33EF1BF00550096E0A6A09500A1054
:10368000D8A445EF1BF047EF1BF06BEF1BF0D89071
:103690000B34056E0C34066E0D34076E0E34086E56
:1036A0000550061007100810D8A459EF1BF05BEF67
:1036B0001BF061EF1BF0000E026E020E016E9EEF1A
:1036C0001BF0000E026E030E016E9EEF1BF09EEFCC
:1036D0001BF09EEF1BF009280A10D8A472EF1BF014
:1036E00074EF1BF098EF1BF00BC005F00CC006F058
:1036F0000DC007F00EC008F0090ED890053606364A
:1037000007360836E82E7DEF1BF00550061007102F
:103710000810D8B48EEF1BF091EF1BF0010E92EF62
:103720001BF0000E016E026A9EEF1BF09EEF1BF075
:10373000000E026E040E016E9EEF1BF0120001C01F
:103740000AF002C00BF003C00CF004C00DF0050637
:10375000D8A00606052806E10628D8A4B2EF1BF07B
:10376000B4EF1BF0C7EF1BF0000E026E000E016EEF
:103770001CEF1CF01CEF1CF0C7EF1BF00A4A0B2AD1
:103780000C4A0D2A0506D8A00606C7EF1BF00AC092
:10379000D9FF0BC0DAFFDF50D8B4D1EF1BF0D3EF65
:1037A0001BF002EF1CF00CC0F6FF0DC0F7FF080085
:1037B000F5500009D8B4DFEF1BF0E1EF1BF002EF8A
:1037C0001CF005500610D8B4E8EF1BF0EAEF1BF030
:1037D00002EF1CF00AC0D9FF0BC0DAFFDF50076E02
:1037E0000CC0F6FF0DC0F7FF0800F5500718D8B45D
:1037F000FCEF1BF0FEEF1BF0BEEF1BF002EF1CF026
:1038000002EF1CF00CC0F6FF0DC0F7FF0800F550EA
:10381000076E086A071E081E074A082A0AC0D9FF51
:103820000BC0DAFFDF50096E09500724016E000E4D
:103830000820026E1CEF1CF01200000E066E04BE83
:1038400026EF1CF024EF1CF02EEF1CF0036C041E7E
:10385000D8B0042A010E066E2EEF1CF002BE35EF22
:103860001CF033EF1CF03DEF1CF0016C021ED8B0D1
:10387000022A010E061A3DEF1CF0000E086E000E23
:10388000076E03500410D8B448EF1CF04AEF1CF048
:103890007EEF1CF0010E056E54EF1CF0D89003363D
:1038A0000436052A54EF1CF004AE59EF1CF05BEF10
:1038B0001CF04EEF1CF05FEF1CF05FEF1CF0D89097
:1038C000073608360350015C04500258D8A06BEF4D
:1038D0001CF06DEF1CF074EF1CF00350015E0450FF
:1038E000025A078074EF1CF0D89004320332052E80
:1038F0005FEF1CF07EEF1CF07EEF1CF00650D8B49A
:1039000084EF1CF086EF1CF08CEF1CF0076C081E97
:10391000D8B0082A8CEF1CF007C001F008C002F0F4
:1039200092EF1CF0120003500410D8B49AEF1CF070
:103930009CEF1CF0A7EF1CF003500410D8A4A3EFD9
:103940001CF0A5EF1CF0ACEF1CF0A7EF1CF0015031
:103950006CEC21F001EF1DF020EE04F00350D926AD
:103960000450DA22DE50DE10D8B4B9EF1CF0BBEF01
:103970001CF0D8EF1CF020EE04F00350D9260450C0
:10398000DA2210EE02F00350E1260450E222DE506B
:10399000E65CE650800A096EDE50800A0958D8B00D
:1039A000D4EF1CF0D6EF1CF001EF1DF0D8EF1CF0A7
:1039B00020EE02F00350D9260450DA22DECF05F0C3
:1039C000DDCF06F003C0D9FF04C0DAFFDECF07F079
:1039D000DDCF08F005500724D96E06500820DA6EB6
:1039E00001C0DFFF20EE02F00350D9260450DA2296
:1039F000DE2A000EDD2201EF1DF001EF1DF001EFC8
:103A00001DF01200000E066E02BE0BEF1DF009EF56
:103A10001DF013EF1DF0016C021ED8B0022A010E3A
:103A2000066E13EF1DF004BE1AEF1DF018EF1DF027
:103A300020EF1DF0036C041ED8B0042A20EF1DF007
:103A400003500410D8B427EF1DF029EF1DF059EFF3
:103A50001DF0010E056E33EF1DF0D89003360436CD
:103A6000052A33EF1DF004AE38EF1DF03AEF1DF0DC
:103A70002DEF1DF03EEF1DF03EEF1DF00350015CF9
:103A800004500258D8A047EF1DF049EF1DF04FEF4A
:103A90001DF00350015E0450025A4FEF1DF0D89004
:103AA00004320332052E3EEF1DF059EF1DF059EFA1
:103AB0001DF00650D8B45FEF1DF061EF1DF067EF09
:103AC0001DF0016C021ED8B0022A67EF1DF001C084
:103AD00001F002C002F06DEF1DF012000001C8A15C
:103AE00074EF1DF076EF1DF082EF1DF013C00AF0A9
:103AF00014C00BF011C00CF012C00DF067EC20F0F8
:103B000082EF1DF016BE87EF1DF089EF1DF08FEFDD
:103B10001DF015C01AF016C01BF093EF1DF0000E3B
:103B20001B6E000E1A6E000E196E000E186EA7EFB7
:103B30001DF0000E026E200E016E11C003F012C0C7
:103B400004F093EC1CF0184A192AA7EF1DF01A5044
:103B5000185C1950800A176E1B50800A1758D8A09D
:103B6000B4EF1DF0B6EF1DF099EF1DF00001C8B1E4
:103B7000BCEF1DF0BEEF1DF0CAEF1DF013C00AF040
:103B800014C00BF011C00CF012C00DF067EC20F067
:103B9000CAEF1DF013C001F014C002F03EEC20F09B
:103BA0001A500124116E1B500220126ED8EF1DF026
:103BB0001200000E0114096E000E02140A6E800E2F
:103BC00003140B6E7F0E04140C6E09500A100B10B8
:103BD0000C10D8A4EEEF1DF0F0EF1DF0FAEF1DF081
:103BE000000E016E000E026E000E036E000E046EDB
:103BF000FAEF1DF0000E0514096E000E06140A6E91
:103C0000800E07140B6E7F0E08140C6E09500A10FC
:103C10000B100C10D8A40FEF1EF011EF1EF01BEFCD
:103C20001EF0000E056E000E066E000E076E000EF2
:103C3000086E1BEF1EF0055001180FE10650021828
:103C40000CE10750031809E108500418D8B42BEF11
:103C50001EF02DEF1EF030EF1EF0D89035EF1EF065
:103C6000D88035EF1EF035EF1EF01200096E51EFCF
:103C70001EF00450800F0A6E6EEF1EF00450C00F4D
:103C80000A6E6EEF1EF00450940F0A6E6EEF1EF077
:103C90000450D40F0A6E6EEF1EF06EEF1EF06EEF42
:103CA0001EF00950076E086A0850000AD8B45BEF8E
:103CB0001EF06EEF1EF00750010AD8B439EF1EF067
:103CC000030AD8B43EEF1EF0010AD8B443EF1EF049
:103CD000070AD8B448EF1EF06EEF1EF00A5083ECCE
:103CE0001AF07FEF1EF005C0F6FF06C0F7FF0800D0
:103CF000F550EBEC19F0054A062A7FEF1EF005C0DF
:103D0000F6FF06C0F7FF0800F5500009D8A48BEFB6
:103D10001EF08DEF1EF073EF1EF08FEF1EF01200FD
:103D2000096EABEF1EF00450800F0A6EC8EF1EF054
:103D30000450C00F0A6EC8EF1EF00450940F0A6EB4
:103D4000C8EF1EF00450D40F0A6EC8EF1EF0C8EF83
:103D50001EF0C8EF1EF00950076E086A0850000AEE
:103D6000D8B4B5EF1EF0C8EF1EF00750010AD8B462
:103D700093EF1EF0030AD8B498EF1EF0010AD8B4EE
:103D80009DEF1EF0070AD8B4A2EF1EF0C8EF1EF098
:103D90000A5083EC1AF0D8EF1EF005C0D9FF06C018
:103DA000DAFFDF50EBEC19F0054A062AD8EF1EF0D7
:103DB00005C0D9FF06C0DAFFDF50D8A4E2EF1EF03D
:103DC000E4EF1EF0CDEF1EF0E6EF1EF0120001C092
:103DD00003F0D8900336D89003363C0E0316C25039
:103DE000C30B0310C26EC2B2F8EF1EF0FCEF1EF060
:103DF000036A032AFDEF1EF0036A010E046E032A14
:103E000004EF1FF0D8900436032E02EF1FF0C2B06B
:103E10000CEF1FF010EF1FF0056A052A11EF1FF0DD
:103E2000056A010E066E052A18EF1FF0D8900636B7
:103E3000052E16EF1FF006500410C21220EF1FF0DF
:103E4000C2B225EF1FF027EF1FF020EF1FF029EF80
:103E50001FF0C350C4CF03F0046A03C004F0036A28
:103E60000310076E0450086E07C001F008C002F08E
:103E70003AEF1FF01200BF0E096EFF0E0A6E07C068
:103E80000BF008C00CF009500B260A500C220C5005
:103E90000AE11A0E0B5CD8A050EF1FF053EF1FF091
:103EA000010E54EF1FF0000E0D6E0E6A64EF1FF04E
:103EB00007C001F008C002F0D2EC20F001C00DF004
:103EC00002C00EF064EF1FF00D500E10D8B46BEF6F
:103ED0001FF06DEF1FF076EF1FF0200E0710076E3A
:103EE0000850086E7AEF1FF07AEF1FF007C007F056
:103EF00008C008F0120009C00DF00AC00EF007C09B
:103F00000FF008C010F087EF1FF087EF1FF00D5083
:103F10000B6E0E500C6E0D4A0E2A0BC0F6FF0CC035
:103F2000F7FFF86A0FC0D9FF10C0DAFF0F4A102A56
:103F3000070EF76403D00800F55005D0F6CFE1FF77
:103F4000F7CFE2FFE750DF6EDF50D8A4AAEF1FF0F3
:103F5000ACEF1FF087EF1FF0AEEF1FF0120058C05C
:103F60005CF059C05DF0000E0001C36F000EC26F1F
:103F7000CFEF1FF056C040F057C041F05C0E426ECC
:103F8000000E436E5AC044F05BC045F069EC0DF082
:103F900040500001C2274150C323CFEF1FF05CC047
:103FA000F6FF5DC0F7FF0800F5500009D8A4DBEF6D
:103FB0001FF0DDEF1FF0BAEF1FF0C2C056F0C3C014
:103FC00057F012009C0E0001A26F000EA36F98C064
:103FD000A4F099C0A5F0000EA76F000EA66F000E0A
:103FE000A96F000EA86FA40E566E000E576E9AC0F1
:103FF00058F09BC059F0A20E5A6E000E5B6EAFECEB
:104000001FF056C0A0F057C0A1F00001A65198259E
:10401000D96EA7519921DA6E000EDF6E10EF20F0F5
:104020001200010E076E200E01180210D8B41BEF0B
:1040300020F01DEF20F038EF20F0F70E036EFF0E9A
:10404000046E01C005F002C006F0035005260450BE
:104050000622065009E1050E055CD8A032EF20F0DB
:1040600034EF20F038EF20F0000E076E38EF20F02C
:1040700007C001F0026A3DEF20F0120001C005F018
:1040800002C006F048EF20F0014A022A48EF20F073
:1040900001C0D9FF02C0DAFFDF50D8A452EF20F0F0
:1040A00054EF20F044EF20F056EF20F005C003F06D
:1040B00006C004F0031E041E034A042A0150032410
:1040C000016E02500420026E66EF20F01200000E16
:1040D000106E000E0F6E7AEF20F00EC001F0026A33
:1040E0000CC003F00DC004F093EC1CF00F4A102A32
:1040F0007AEF20F00F500A24D96E10500B20DA6EA0
:10410000DF500E6E0E50D8A488EF20F08AEF20F01A
:104110006DEF20F08CEF20F01200000E2C1A000E34
:104120002D1A000E2E1A800E2F1A28C001F029C059
:1041300002F02AC003F02BC004F02CC005F02DC003
:1041400006F02EC007F02FC008F0A7EC0AF001C05F
:1041500028F002C029F003C02AF004C02BF0B1EF10
:1041600020F012000150021003100410D8B4BBEF6D
:1041700020F0BDEF20F0C7EF20F0000E011A000E76
:10418000021A000E031A800E041AC7EF20F001C0B5
:1041900001F002C002F003C003F004C004F0D1EF4C
:1041A00020F01200BF0E036EFF0E046E01C005F07A
:1041B00002C006F0035005260450062206500AE10C
:1041C0001A0E055CD8A0E7EF20F0EAEF20F0010E10
:1041D000EBEF20F0000E016E026AEFEF20F012000C
:1041E000D00E036EFF0E046E01C005F002C006F093
:1041F000035005260450062206500AE10A0E055C0B
:10420000D8A005EF21F008EF21F0010E09EF21F011
:10421000000E016E026A0DEF21F012008D82060E73
:10422000026E130E016EAE0EE82EFED7012EFCD7E5
:10423000022EFAD78D92060E026E130E016EAE0E8E
:10424000E82EFED7012EFCD7022EFAD7120011C09D
:1042500001F012C002F03EEC20F001501124076E74
:1042600002501220086E13C009F014C00AF07BEC53
:104270001FF03BEF21F0120001500302F3CF05F0D5
:10428000F4CF06F001500402F35006260250030258
:10429000F350062605C001F006C002F050EF21F0F1
:1042A000120001EE00F0500EEE6AE806FDE100EEAD
:1042B000BAF0100EEE6AE806FDE1000EF86E00019D
:1042C0004AEF19F092680E0EC16E920EC06E000E8B
:0A42D000C46E000EC36E120012004F
:020000040020DA
:08000000FFFFFFFFFFFFFFFF00
:020000040030CA
:0E00000000085E3CFFD381FF0FC00FE00F40F1
:00000001FF
