:0400000087EF00F096
:10000800FACF05F0FBCF06F0E9CF07F0EACF08F00A
:10001800E1CF09F0E2CF0AF0D9CF0BF0DACF0CF03C
:10002800F3CF0DF0F4CF0EF0F6CF0FF0F7CF10F0BE
:10003800F8CF11F0F5CF12F09EAA48D03D0E362425
:10004800D96E000E3720DA6EAECFDFFF364A372A78
:10005800FF0E016EFF0E026E36C003F037C004F0CB
:1000680001500326025004223D0E0324D96E000ECF
:100078000420DA6E2A0EDF6209D0000E356E010EFA
:10008800346E000E376E000E366E20D036500B0AD6
:100098003710D8A41BD0000E376E000E366E000E37
:1000A800146E000E136E1450800A800F0C0ED8B414
:1000B800135CD8B00BD03D0E1324D96E000E14205B
:1000C800DA6E200EDF6E134A142AEDD712C0F5FF40
:1000D80011C0F8FF10C0F7FF0FC0F6FF0EC0F4FF05
:1000E8000DC0F3FF0CC0DAFF0BC0D9FF0AC0E2FF56
:1000F80009C0E1FF08C0EAFF07C0E9FF06C0FBFF2F
:0A01080005C0FAFF110053EF06F0E6
:1008000000286E756C6C2900686F6C61000A257396
:100810000000000E156E800E166E010EE9EC05F05C
:100820008198200E95EC06F0020E95EC06F081887A
:100830008198210E95EC06F0000E95EC06F081886B
:100840008198220E95EC06F0010E95EC06F0818859
:100850008198230E95EC06F0010E95EC06F0818848
:100860008198240E95EC06F0000E95EC06F0818838
:100870008198250E95EC06F0010E95EC06F0818826
:100880008198260E95EC06F0260E95EC06F08188F0
:100890008198310E95EC06F00C0E95EC06F08188EF
:1008A00081982A0E95EC06F0A30E95EC06F0A30EA7
:1008B00095EC06F0A30E95EC06F081888198300E39
:1008C00095EC06F0A30E95EC06F0A30E95EC06F061
:1008D000A30E95EC06F08188820E186EDE0EE82ECF
:1008E000FED7182EFCD71200000E1D6E190E1C6EBE
:1008F00058D01E50250AD8B404D01E50C6EC06F0BD
:1009000050D0000E1B6E3DD01CC0D9FF1DC0DAFFB9
:10091000DECF1FF0DDCF20F0020E1C26000E1D22C0
:1009200020501F10D8A419D0080E206E010E1F6E83
:1009300014D01FC0F6FF20C0F7FFF86A070EF76457
:1009400003D00800F55005D0F6CFD9FFF7CFDAFF76
:10095000DF50C6EC06F01F4A202A1FC0F6FF20C059
:10096000F7FFF86A070EF76403D00800F55005D0CA
:10097000F6CFD9FFF7CFDAFFDF500009D8B411D096
:10098000D8D717C0F6FF18C0F7FF174A182A080073
:10099000F5CF1EF01E50000AD8B41200730AD8B466
:1009A000B3D717C0F6FF18C0F7FF174A182A080078
:1009B000F5CF1EF01E669DD712008980820E156E3F
:1009C000DE0EE82EFED7152EFCD78990820E156E0E
:1009D000DE0EE82EFED7152EFCD78980820E156E0E
:1009E000DE0EE82EFED7152EFCD78990820E156EEE
:1009F000DE0EE82EFED7152EFCD78980820E156EEE
:100A0000DE0EE82EFED7152EFCD78990820E156ECD
:100A1000DE0EE82EFED7152EFCD78980820E156ECD
:100A2000DE0EE82EFED7152EFCD78990820E156EAD
:100A3000DE0EE82EFED7152EFCD78980820E156EAD
:100A4000DE0EE82EFED7152EFCD78990820E156E8D
:100A5000DE0EE82EFED7152EFCD78980820E156E8D
:100A6000DE0EE82EFED7152EFCD78990820E156E6D
:100A7000DE0EE82EFED7152EFCD71200820E156E64
:100A8000DE0EE82EFED7152EFCD7820E156EDE0E7A
:100A9000E82EFED7152EFCD7820E156EDE0EE82E40
:100AA000FED7152EFCD7820E156EDE0EE82EFED771
:100AB000152EFCD7820E156EDE0EE82EFED7152EF3
:100AC000FCD7820E156EDE0EE82EFED7152EFCD753
:100AD000820E156EDE0EE82EFED7152EFCD7820E86
:100AE000156EDE0EE82EFED7152EFCD7820E156E83
:100AF000DE0EE82EFED7152EFCD7820E156EDE0E0A
:100B0000E82EFED7152EFCD71200A1EC06F0F28ECF
:100B1000F28C820E236EDE0EE82EFED7232EFCD73B
:100B200009EC04F0820E236EDE0EE82EFED7232E93
:100B3000FCD7DFEC06F06EEC06F0DFEC06F0080EFA
:100B4000186E080E176E74EC04F035503410D8B4DB
:100B5000FCD7080E186E0D0E176E000E1A6E3D0EA5
:100B6000196E74EC04F0000E186E3D0E176E37EC23
:100B700006F03EEC05F0E9D79D9A000E166E000EC9
:100B8000156ECBEC06F0080EB86E900EAB6E240E10
:100B9000AC6E670EAF6E000EB06E000E166E000EDD
:100BA000156ED5EC06F0000E166E000E156ED0EC2C
:100BB00006F0000E166E000E156EDAEC06F0000E52
:100BC0003B6E000E3A6E000E3C6E000E396E9D8A32
:100BD0001200176E3F0EC716000EC66E1750C612D3
:100BE0001650C71205D0C78C13D0C78CC68810D03A
:100BF0001550000AD8B4F7D7020AD8B4F6D7010ABC
:100C0000D8B4F4D705D0928A93840AD0939408D0AC
:100C10001750040AD8B4F7D7010AD8B4F5D7F6D7D5
:100C200093809396C68A1200000E8D6E000E8C6E15
:100C3000000E896E100E8A6E000E8B6E050E966E7B
:100C4000FE0E926E010E936E870E946E95680F01E4
:100C50005E69040E0F015D6F000E0F015C6F050EE3
:100C60000F015F6F2E0E0F015B6FF18E120020EEF1
:100C70000BF01750D9261850DA22000EDF6E81983B
:100C8000A00E95EC06F0000E95EC06F018C016F0DC
:100C900017C015F082EC06F08188818A320EE82EAA
:100CA000FED7819A120000EE24F0190EEE6AE806D3
:100CB000FDE1740EF66E0D0EF76E000EF86E00EE8E
:100CC0003DF010EE0CF00900F5CFEEFFE550E150DD
:100CD000FAE1000EF86E000185EF05F0819A320E00
:100CE000E82EFED78198200E95EC06F0020E95ECCA
:100CF00006F08188320EE82EFED7818A320EE82E69
:100D0000FED712000AD015C0D9FF16C0DAFFDF5097
:100D1000C96E154A162AC7A0FED715C0D9FF16C03E
:100D2000DAFFDF50D8B41200EED7166EC9CF15F037
:100D30009E96C69E16C0C9FFC6BE12009EB6120081
:100D4000FDD7E4EC06F014EC06F0AAEC06F0BCECDF
:100D500005F01200520ED36E000ED26E000E9B6E86
:100D6000000EB56E12008D823EEC05F08D923EECC9
:100D700005F012002000000000000000000000004C
:100D8000156E9EA8FED715C0ADFF1200166E165048
:100D9000C0EC06F0120016C050F015C04FF0120063
:100DA00016C04EF015C04DF0120016C04CF015C024
:100DB0004BF0120016C04AF015C049F01200DDECED
:0C0DC00004F0B3EC06F01200D09E12000C
:020000040020DA
:08000000FFFFFFFFFFFFFFFF00
:020000040030CA
:0E00000000285F3CFFD385FF0FC00FE00F40CC
:00000001FF
