:020000040000FA
:0400000066EF3FF078
:107ECC000001A6EF3FF0720ED36E000ED26E000EC4
:107EDC009B6E000EB56E1200BDEC3FF069EC3FF0EE
:107EEC007BEC3FF092EC3FF01200150EC26E000ED0
:107EFC00C16E800EC06E000EC36E000EC46E1200FA
:107F0C00C450046E036AC3500324016E000E042097
:107F1C00026E91EF3FF01200D59C000ED76EF60E5C
:107F2C00D66ED650D7CF01F0026A01C002F0016ABA
:107F3C000110086E0250096EF2941F0ED56E1200DD
:107F4C0072EC3FF0AAEF3FF07BEC3FF0050EDDEC5E
:107F5C003FF001C006F002C007F086EC3FF0015084
:107F6C00806EAAEF3FF0AAEF3FF000EF00F0000E9A
:107F7C008D6E000E8C6E000E896E000E8A6E000ED9
:107F8C008B6E070E966E000E926E9368C70E946EF3
:107F9C0095680F015E69C40E5D6F3F0E5C6F070E36
:107FAC005F6F260E5B6F000E856EF18E1200056EF4
:107FBC0005C003F003460346C2500318830B031895
:107FCC00C26EC280C282EBEF3FF0C2B2F0EF3FF064
:107FDC00F2EF3FF0EBEF3FF0F4EF3FF0C450046EE4
:107FEC00036AC3500324016E000E0420026EFFEFDF
:047FFC003FF0120040
:020000040020DA
:08000000FFFFFFFFFFFFFFFF00
:020000040030CA
:0E00000000285F3CFFD385FF0FC00FE00F40CC
:00000001FF
