:0400000045EF00F0D8
:10000800FACF01F0FBCF02F0E9CF03F0EACF04F01A
:10001800E1CF05F0E2CF06F0D9CF07F0DACF08F04C
:10002800F3CF09F0F4CF0AF0F6CF0BF0F7CF0CF0CE
:10003800F8CF0DF0F5CF0EF09EAA06D0AECF49F05E
:10004800000E466E010E456E0EC0F5FF0DC0F8FF9E
:100058000CC0F7FF0BC0F6FF0AC0F4FF09C0F3FF9E
:1000680008C0DAFF07C0D9FF06C0E2FF05C0E1FFFC
:1000780004C0EAFF03C0E9FF02C0FBFF01C0FAFFAA
:060088001100C0EF0AF0B8
:10080000004D264D00009492000E0F015D6F000E0A
:10081000256E010E246E000E286E090E296E3D0E07
:100820002A6E000E2B6E28C00FF029C010F02AC0CF
:1008300011F02BC012F01EC013F01FC014F0156A87
:10084000166AFAEC08F00FC028F010C029F011C0A9
:100850002AF012C02BF028C020F029C021F02AC0B5
:1008600022F02BC023F0030E05D0D8902332223281
:1008700021322032E82EF9D720C028F021C029F0FB
:1008800022C02AF023C02BF0000EBA6E28D024C05C
:1008900020F025C021F0D89020362136D89020367F
:1008A000213620C024F021C025F0BA2A28C020F02B
:1008B00029C021F02AC022F02BC023F0030E05D05E
:1008C000D8902332223221322032E82EF9D720C0AC
:1008D00028F021C029F022C02AF023C02BF0010EFD
:1008E000206E010E216E000E226E000E236E20502F
:1008F000285C2150295822502A5823502B58D8B010
:10090000C6D72806000E295A2A5A2B5A28C0BBFFE0
:1009100028C02CF029C02DF02AC02EF02BC02FF0BB
:10092000010E2C26000E2D222E222F221CC00FF08D
:100930001DC010F0116A126A2CC013F02DC014F003
:100940002EC015F02FC016F09CEC09F00FC02CF053
:1009500010C02DF011C02EF012C02FF02CC020F0CE
:100960002DC021F02EC022F02FC023F0020ED8900F
:100970002036213622362336E82EF9D720C02CF037
:1009800021C02DF022C02EF023C02FF02CC00FF07C
:100990002DC010F02EC011F02FC012F0640E136E97
:1009A000000E146E000E156E000E166EFAEC08F0B6
:1009B0000FC02CF010C02DF011C02EF012C02FF07F
:1009C0002CC026F02DC027F0030E2614266E276AB1
:1009D00026C020F027C021F0203A213AF00E21163F
:1009E00020500F0B2112F00E201620C026F021C03F
:1009F00027F00C0E976E97502610976E2CC020F0A3
:100A00002DC021F02EC022F02FC023F0030E05D000
:100A1000D8902332223221322032E82EF9D720C05A
:100A20002CF021C02DF022C02EF023C02FF02CC0BE
:100A300090FFBA84000EBC6E12009492000E0F015B
:100A40005D6F000E256E010E246E000E286E090EDD
:100A5000296E3D0E2A6E000E2B6E28C00FF029C0A5
:100A600010F02AC011F02BC012F01EC013F01FC0EE
:100A700014F0156A166AFAEC08F00FC028F010C0DE
:100A800029F011C02AF012C02BF028C020F029C094
:100A900021F02AC022F02BC023F0030E05D0D890FD
:100AA0002332223221322032E82EF9D720C028F01A
:100AB00021C029F022C02AF023C02BF0000EBA6E0C
:100AC00028D024C020F025C021F0D890203621362F
:100AD000D8902036213620C024F021C025F0BA2A33
:100AE00028C020F029C021F02AC022F02BC023F01A
:100AF000030E05D0D8902332223221322032E82E44
:100B0000F9D720C028F021C029F022C02AF023C044
:100B10002BF0010E206E010E216E000E226E000ED3
:100B2000236E2050285C2150295822502A582350E7
:100B30002B58D8B0C6D72806000E295A2A5A2B5A45
:100B400028C0BBFF28C02CF029C02DF02AC02EF0F1
:100B50002BC02FF0010E2C26000E2D222E222F222C
:100B60001CC00FF01DC010F0116A126A2CC013F0E7
:100B70002DC014F02EC015F02FC016F09CEC09F01B
:100B80000FC02CF010C02DF011C02EF012C02FF0AD
:100B90002CC020F02DC021F02EC022F02FC023F059
:100BA000020ED8902036213622362336E82EF9D789
:100BB00020C02CF021C02DF022C02EF023C02FF039
:100BC0002CC00FF02DC010F02EC011F02FC012F06D
:100BD000640E136E000E146E000E156E000E166E6F
:100BE000FAEC08F00FC02CF010C02DF011C02EF060
:100BF00012C02FF02CC026F02DC027F0030E2614B3
:100C0000266E276A26C020F027C021F0203A213A1C
:100C1000F00E211620500F0B2112F00E201620C0CE
:100C200026F021C027F00C0EBD6EBD502610BD6E03
:100C30002CC020F02DC021F02EC022F02FC023F0B8
:100C4000030E05D0D8902332223221322032E82EF2
:100C5000F9D720C02CF021C02DF022C02EF023C0E7
:100C60002FF02CC0BEFFBA84000EBC6E1200CBEC7D
:100C70000AF0CFEC06F0F28EF28C0C0EFCEC07F0D2
:100C8000010E126E080E146E010E136E010E3BEC77
:100C900009F08FEC08F0820E306EDE0EE82EFED7E3
:100CA000302EFCD782EC0AF0820E306EDE0EE82E7B
:100CB000FED7302EFCD7EDEC0AF06EEC0AF011C036
:100CC00033F012C034F034503310D8B433D0EDECDC
:100CD0000AF0820E306EDE0EE82EFED7302EFCD7E4
:100CE000820E306EDE0EE82EFED7302EFCD7820E3E
:100CF000306EDE0EE82EFED7302EFCD7820E306E20
:100D0000DE0EE82EFED7302EFCD7820E306EDE0EC1
:100D1000E82EFED7302EFCD7820E306EDE0EE82E87
:100D2000FED7302EFCD7820E306EDE0EE82EFED7B8
:100D3000302EFCD7A7EC0AF0326E15D007EC0BF082
:100D4000BCD7E6EC0AF0B9D759EC0AF0B6D744ECB8
:100D50000AF0B3D72FEC0AF0B0D716EC0AF0ADD7F3
:100D600016EC0AF0AAD733C030F034C031F031505D
:100D7000000AD8A4F5D73050310AD8B4E5D7030A11
:100D8000D8B4E5D7010AD8B4E5D7520AD8B4D6D733
:100D9000030AD8B4D6D7110AD8B4DFD7E1D7000EEA
:100DA0000F015E6F959E959C959A95989596959254
:100DB0009594839E839C839A83988396839283944D
:100DC000080E126E230EE82EFED7122EFCD700F06E
:100DD000080E126E230EE82EFED7122EFCD700F05E
:100DE000080E126E230EE82EFED7122EFCD700F04E
:100DF000080E126E230EE82EFED7122EFCD700F03E
:100E0000080E126E230EE82EFED7122EFCD700F02D
:100E1000080E126E230EE82EFED7122EFCD700F01D
:100E2000010E136E1ED0839E839C838A83888396D3
:100E30008392839E839C838A83888386839200F037
:100E400000D000D0839E839C838A8388839683927C
:100E5000080E126E230EE82EFED7122EFCD700F0DD
:100E6000132A030E1364DFD7839E839C838A83989F
:100E700083968392839E839C838A839883868392BE
:100E800000F000D000D0839E839C838A8398839651
:100E90008392080E126E230EE82EFED7122EFCD778
:100EA00000F0280E136E1350FCEC07F0100E136EBA
:100EB0001350FCEC07F0010E136E1350FCEC07F01E
:100EC0000F0E136E1350FCEC07F01200116E839698
:100ED00083820F6A11AE01D00F2A010E0F160F3256
:100EE0000F3283500F187F0B0F18836E11C00FF055
:100EF000060E106ED8900F32102EFCD7010E0F1672
:100F00000F3A0F460F4683500F18BF0B0F18836E12
:100F100011C00FF0050E106ED8900F32102EFCD7B6
:100F2000010E0F160F3A0F4683500F18DF0B0F18E4
:100F3000836E11C00FF00F3A0F0E0F16010E0F1631
:100F40000F3A83500F18EF0B0F18836E030EE82E25
:100F5000FED700F0838600F000D000D0839611C049
:100F60000FF0D8900F32D8900F32D8900F32010E78
:100F70000F160F320F3283500F187F0B0F18836E2E
:100F800011C00FF0D8900F32D8900F32010E0F160B
:100F90000F3A0F460F4683500F18BF0B0F18836E82
:100FA00011C00FF0D8900F32010E0F160F3A0F46F6
:100FB00083500F18DF0B0F18836E11C00FF0010E56
:100FC0000F160F3A83500F18EF0B0F18836E030E96
:100FD000E82EFED700F0838600F000D000D0839684
:100FE00000F000D000D0080E0F6E230EE82EFED7C2
:100FF0000F2EFCD700F01200116E839683920F6AB9
:1010000011AE01D00F2A010E0F160F320F3283508E
:101010000F187F0B0F18836E11C00FF0060E106EA5
:10102000D8900F32102EFCD7010E0F160F3A0F4634
:101030000F4683500F18BF0B0F18836E11C00FF0AF
:10104000050E106ED8900F32102EFCD7010E0F1621
:101050000F3A0F4683500F18DF0B0F18836E11C025
:101060000FF00F3A0F0E0F16010E0F160F3A8350A6
:101070000F18EF0B0F18836E030EE82EFED700F04B
:10108000838600F000D000D0839611C00FF0D89076
:101090000F32D8900F32D8900F32010E0F160F3248
:1010A0000F3283500F187F0B0F18836E11C00FF093
:1010B000D8900F32D8900F32010E0F160F3A0F460C
:1010C0000F4683500F18BF0B0F18836E11C00FF01F
:1010D000D8900F32010E0F160F3A0F4683500F189B
:1010E000DF0B0F18836E11C00FF0010E0F160F3AB1
:1010F00083500F18EF0B0F18836E030EE82EFED7E8
:1011000000F0838600F000D000D08396080E0F6EAA
:10111000230EE82EFED70F2EFCD700F01200000E93
:101120000F6E800E106E010EC7EC09F08198200E34
:10113000B4EC0AF0020EB4EC0AF081888198210E1A
:10114000B4EC0AF0000EB4EC0AF081888198220E0B
:10115000B4EC0AF0010EB4EC0AF081888198230EF9
:10116000B4EC0AF0010EB4EC0AF081888198240EE8
:10117000B4EC0AF0000EB4EC0AF081888198250ED8
:10118000B4EC0AF0010EB4EC0AF081888198260EC6
:10119000B4EC0AF0260EB4EC0AF081888198310E86
:1011A000B4EC0AF00C0EB4EC0AF0818881982A0E97
:1011B000B4EC0AF0A30EB4EC0AF0A30EB4EC0AF0FF
:1011C000A30EB4EC0AF081888198300EB4EC0AF0DA
:1011D000A30EB4EC0AF0A30EB4EC0AF0A30EB4EC28
:1011E0000AF08188820E126EDE0EE82EFED7122ED5
:1011F000FCD71200000E176E000E186E000E196E4E
:10120000000E1A6E1650131014101510D8B42AD0F0
:10121000010E1B6E06D0D8901336143615361636CE
:101220001B2A16AEF8D7D8901736183619361A3644
:1012300013500F5C14501058155011581650125876
:10124000D8A009D013500F5E1450105A1550115ADF
:101250001650125A1780D8901632153214321332A3
:101260001B2EE1D717C00FF018C010F019C011F0F5
:101270001AC012F01200156E0DD01250800F08D057
:101280001250C00F05D01250940F02D01250D40F3C
:10129000166E0DD01550010AD8B4EFD7030AD8B492
:1012A000EFD7010AD8B4EFD7070AD8B4EFD7165052
:1012B000FCEC07F00AD013C0F6FF14C0F7FF0800DB
:1012C000F55066EC07F0134A142A13C0F6FF14C059
:1012D000F7FF0800F5500009D8B41200ECD79D9A2A
:1012E000000E106E000E0F6EF3EC0AF0080EB86ED2
:1012F000900EAB6E240EAC6E670EAF6E000EB06E2D
:10130000000E106E000E0F6EFDEC0AF0000E106E57
:10131000000E0F6EF8EC0AF0000E106E000E0F6E4D
:1013200002EC0BF0000E4C6E000E4B6E000E4D6E7C
:10133000000E4A6E9D8A1200000E176E000E186E87
:10134000000E196E000E1A6E0FA008D0135017264B
:10135000145018221550192216501A22D8901336FC
:10136000143615361636D8901232113210320F322A
:1013700012500F1010101110D8A4E6D717C00FF09C
:1013800018C010F019C011F01AC012F01200116E3E
:101390003F0EC716000EC66E1150C6121050C7126F
:1013A00005D0C78C13D0C78CC68810D00F50000A48
:1013B000D8B4F7D7020AD8B4F6D7010AD8B4F4D70C
:1013C00005D0928A93840AD0939408D01150040ACD
:1013D000D8B4F7D7010AD8B4F5D7F6D79380939647
:1013E000C68A1200000E8D6E000E8C6E000E896E85
:1013F000000E8A6E000E8B6E050E966EFE0E926EBD
:10140000C20E936E810E946E9568010E0F015E6F91
:10141000000E0F015D6F000E0F015C6F050E0F01D6
:101420005F6F2E0E0F015B6FF18E1200000E1D6EAE
:10143000000E1C6E030E1F6EE80E1E6E1DEC05F0F6
:10144000000E1D6E000E1C6E030E1F6EE80E1E6E4B
:1014500003EC04F08A948A968A988A9A1200000E05
:101460001D6E630E1C6E030E1F6EE80E1E6E1DECCD
:1014700005F0000E1D6E630E1C6E030E1F6EE80E4F
:101480001E6E03EC04F01200000E1D6E320E1C6E78
:10149000030E1F6EE80E1E6E1DEC05F0000E1D6E95
:1014A000320E1C6E030E1F6EE80E1E6E03EC04F06F
:1014B0001200000E1D6E1E0E1C6E030E1F6EE80E37
:1014C0001E6E1DEC05F0000E1D6E1E0E1C6E030E32
:1014D0001F6EE80E1E6E03EC04F01200000E156E77
:1014E000000E146E8198070EB4EC0AF0DDEC0AF0E1
:1014F000136E1350146E156A818814C011F015C054
:1015000012F01200819A320EE82EFED78198200E3A
:10151000B4EC0AF0030EB4EC0AF08188320EE82E27
:10152000FED7818A320EE82EFED712008B8C820EF7
:101530000F6EDE0EE82EFED70F2EFCD78B9C820E90
:101540000F6EDE0EE82EFED70F2EFCD7120081980C
:10155000610EB4EC0AF0000EB4EC0AF0DDEC0AF017
:10156000116E818811501200106EC9CF0FF09E9637
:10157000C69E10C0C9FFC6BE12009EB61200FDD79F
:1015800000EE35F0190EEE6AE806FDE1000EF86E89
:10159000000137EF06F00CEC0BF0F2EC09F0D4ECA4
:1015A0000AF06FEC09F01200520ED36E000ED26EEC
:1015B000000E9B6E000EB56E1200C9CF0FF09E9606
:1015C000000EC96E9EA6FED7C95012008A948A8664
:1015D0008A988A8A96EC0AF012008198E20EB4EC9E
:1015E0000AF08188120010C055F00FC054F01200AC
:1015F00010C053F00FC052F0120010C051F00FC0D5
:1016000050F0120010C04FF00FC04EF012008A844C
:0C1610008A968A888A9A1200D09E1200E6
:020000040020DA
:08000000FFFFFFFFFFFFFFFF00
:020000040030CA
:0E00000000285F3CFFD385FF0FC00FE00F40CC
:00000001FF
